:10000000000001204D120000751200007712000060
:10001000791200007B1200007D1200000000000039
:100020000000000000000000000000007F1200003F
:100030008112000000000000831200008512000001
:10004000871200008712000087120000871200004C
:10005000871200008712000087120000871200003C
:10006000871200008712000087120000871200002C
:10007000871200008712000087120000871200001C
:100080008712000087120000910F00008712000005
:1000900087120000871200008712000087120000FC
:1000A00087120000871200008712000087120000EC
:1000B000871200008712000000000000000000000E
:1000C00087120000871200008712000087120000CC
:1000D0008712000087120000871200000000000055
:1000E0000000000000000000000000000000000010
:1000F0000000000000000000000000000000000000
:1001000000000000000000000000000000000000EF
:1001100000000000000000000000000000000000DF
:1001200000000000000000000000000000000000CF
:1001300000000000000000000000000000000000BF
:1001400000000000000000000000000000000000AF
:10015000000000000000000000000000000000009F
:10016000000000000000000000000000000000008F
:10017000000000000000000000000000000000007F
:10018000000000000000000000000000000000006F
:10019000000000000000000000000000000000005F
:1001A000000000000000000000000000000000004F
:1001B000000000000000000000000000000000003F
:1001C000000000000000000000000000000000002F
:1001D000000000000000000000000000000000001F
:1001E000000000000000000000000000000000000F
:1001F00000000000000000000000000000000000FF
:100200006E72665F6770696F5F70696E5F7072654E
:1002100073656E745F636865636B282A705F7069CD
:100220006E2900002E2E2F2E2E2F2E2E2F7563645A
:1002300065762F6578742F6E7266782F68616C2FE3
:100240006E72665F6770696F2E6800003000000094
:10025000514445432043757272656E7420506F732C
:100260003A2025640A00000051444543204143439D
:100270004F46000051444543000000006E72665F27
:100280006770696F5F70696E5F706F72745F6465CD
:10029000636F6465000000005465726D696E616C87
:1002A000000000000000000000005454522052459D
:1002B00047474553000000006E72665F6770696FC4
:1002C0005F70696E5F70726573656E745F63686599
:1002D000636B282A705F70696E2900002E2E2F2E06
:1002E0002E2F2E2E2F2F6578742F6E7266782F6822
:1002F000616C2F6E72665F6770696F2E6800000018
:1003000030000000705F636F6E6669670000000078
:100310002E2E2F2E2E2F2E2E2F2F6578742F6E72AD
:1003200066782F647269766572732F7372632F6EAD
:100330007266785F716465632E6300006576656E32
:10034000745F68616E646C65720000006D5F737449
:1003500061746520213D204E5246585F4452565FDD
:1003600053544154455F554E494E495449414C49B7
:100370005A4544006D5F7374617465203D3D204EA5
:100380005246585F4452565F53544154455F494E5C
:10039000495449414C495A45440000006D5F73740B
:1003A000617465203D3D204E5246585F4452565F71
:1003B00053544154455F504F57455245445F4F4E4B
:1003C000000000006E7266785F716465635F696E3D
:1003D000697400006E72665F6770696F5F70696E46
:1003E0005F706F72745F6465636F64650000000026
:1003F0006E7266785F716465635F656E61626C657D
:10040000002C2066756E6374696F6E3A200061730C
:1004100073657274696F6E2022257322206661698C
:100420006C65643A2066696C6520222573222C2055
:100430006C696E65202564257325730A0000000031
:1004400008000020232D302B2000686C4C006566CE
:100450006745464700000000000000000000000063
:10046000000000000000000000000000000000008C
:10047000000000000000000000000000000000007C
:10048000000000000000000000000000000000006C
:10049000000000000000000000000000000000005C
:1004A000000000000000000000000000000000004C
:1004B00000000000000000003031323334353637A0
:1004C00038394142434445460030313233343536C1
:0A04D0003738396162636465660025
:0804DC005400000001000000C3
:1004F00010B5054C237833B9044B13B10448AFF35E
:1005000000800123237010BD24050020000000009E
:10051000C42F000008B5034B1BB103490348AFF3D8
:10052000008008BD0000000028050020C42F000046
:10053000A3F5803A704700BF154B002B08BF114B45
:100540009D46FFF7F5FF00218B460F461148124AE2
:10055000121A01F08FFB0C4B002B00D098470B4B6D
:10056000002B00D098470020002104000D000B480C
:1005700001F00EFB01F04CFB2000290000F01AF9FD
:1005800001F00CFB0000080000000000000000006B
:100590000000012024050020F0050020C51B0000FC
:1005A00080B582B000AF78607B681B68184600F0A9
:1005B00068F80346002B06D10C4B0D4A40F2472148
:1005C0000C4801F0C7FA786800F080F80346002B69
:1005D00006D0094B064A4FF41371064801F0BAFAE7
:1005E0004FF0A04318460837BD4680BD000200000A
:1005F0007C020000240200004C02000080B584B0A0
:1006000000AF7860084611461A460346FB700B4659
:10061000BB7013467B703B1D1846FFF7C1FFF860A7
:100620000023BB60FA78BB785B001A437B789B00A1
:100630001A433B7E1B021A433B7F1B041343BA68D9
:100640001343BB607A68FB6802F5E072B96843F84F
:10065000221000BF1037BD4680BD80B584B002AF08
:1006600078600B46FB70FB7800220192002200921A
:10067000002200217868FFF7C1FF00BF0837BD46A0
:1006800080BD80B485B000AF78607B685B09BB60DB
:100690000023FB60BB68002B03D14FF0FF33FB60EE
:1006A00000BF7B6803F01F037B60FA687B6822FA57
:1006B00003F303F00103002B14BF01230023DBB27B
:1006C00018461437BD465DF8047B704780B485B08A
:1006D00000AF78607B681B68FB60FB6803F01F025B
:1006E0007B681A60FB685B0918461437BD465DF8E5
:1006F000047B704780B582B000AF3B4683E80300BF
:100700003B88B3F5847F18D0B3F5847F1ADCB3F54A
:10071000807F16D0B3F5827F00D013E0B7F90230A6
:100720001A460A4B1B681344084A1360074B1B68A0
:100730001946074801F0FEFB04E0064801F080FC82
:1007400000E000BF00BF0837BD4680BD4005002067
:10075000500200006802000080B588B000AF072397
:100760003B7100237B710323BB604FF0FF333B6180
:100770000423FB6002237B6101233B7600237B760D
:100780000123BB760623FB763B1D0949184600F082
:1007900073FC03210320FFF760FF03210420FFF710
:1007A0005CFF00F031FD00BF2037BD4680BD00BFBB
:1007B000F506000080B582B000AF00F0B5F905483D
:1007C00001F03EFCFFF7C8FF00237B607B6801332C
:1007D0007B60FBE77402000080B584B000AFF86076
:1007E000B9607A603B603A687968002000F076F979
:1007F0003B6818461037BD4680BD000080B483B00A
:1008000000AF254B3B603B6803221A613B68032223
:100810005A613B68214A9A613B68214ADA613B6828
:100820004FF480621A623B6800229A623B680022A1
:100830005A623B680022DA623B68184A1A663B68D3
:10084000184A5A663B6810229A663B6800221A676B
:100850003B680022DA663B6800225A67BFF35F8F6D
:1008600000237B600CE07B68C3F10F030E4AD15C70
:100870003A687B6813440A461A707B6801337B60D0
:100880007B680F2BEFD9BFF35F8F00BF0C37BD46DE
:100890005DF8047B704700BF6C00002098020000E8
:1008A0001401002014050020A402000080B58AB0C5
:1008B00000AFF860B9607A6000233B62FB68DB68D8
:1008C000FB61FB681B69BB61BA69FB699A4205D988
:1008D000BA69FB69D31A013B7B6207E0FB689A683F
:1008E000B969FB69CB1A1344013B7B62FB689A68C8
:1008F000FB69D31A7A6A934228BF13467B627A6AED
:100900007B68934228BF13467B62FB685A68FB6989
:1009100013447B617A6AB968786901F09DF93A6A93
:100920007B6A13443B62BA687B6A1344BB607A6893
:100930007B6AD31A7B60FA697B6A1344FB61FB68AC
:100940009B68FA699A4201D10023FB61BFF35F8F74
:10095000FB68FA69DA607B68002BB2D13B6A184603
:100960002837BD4680BD80B588B000AFF860B9605B
:100970007A60FB68DB68FB61FB689A68FB69D31AE5
:10098000BB61BA697B689A4211D9FB685A68FB69F6
:1009900013443B617A68B968386901F05DF9BFF3C7
:1009A0005F8FFA697B681A44FB68DA601FE0BB69F5
:1009B0007B61FB685A68FB6913443B617A69B968DB
:1009C000386901F049F97A68BB69D31A7B61FB6821
:1009D0005B683B61BA68BB6913447A691946386938
:1009E00001F03AF9BFF35F8FFB687A69DA6000BF04
:1009F0002037BD4680BD80B487B000AF78607B688B
:100A00001B693B617B68DB68FB603A69FB689A4263
:100A100008D87B689A68FB68D21A3B691344013B8B
:100A20007B6104E03A69FB68D31A013B7B617B6917
:100A300018461C37BD465DF8047B704780B588B00A
:100A400000AFF860B9607A60BB68BB61FB685A1C94
:100A500013465B001344DB001F4A13447B617B6930
:100A60005B69022B29D0022B2ED8002B02D0012B40
:100A700013D029E07869FFF7BEFF38613A697B68D7
:100A80009A4202D20023FB6121E07B68FB617A6815
:100A9000B9697869FFF767FF19E07869FFF7ABFF7D
:100AA00038617A683B69934228BF1346FB61FA6953
:100AB000B9697869FFF757FF09E07A68B969786919
:100AC000FFF7F4FEF86102E00023FB6100BFFB6961
:100AD00018462037BD4680BD6C00002080B588B028
:100AE00000AFF860B9607A600E4BFB61FB691B7860
:100AF000DBB2002B01D1FFF781FEEFF311834FF042
:100B0000200181F31188BB617A68B968F868FFF742
:100B100095FF7861BB6983F311887B69184620379C
:100B2000BD4680BD6C00002080B500AFFFF766FEBB
:100B300000BF80BD80B483B000AF0346FB7197F95E
:100B40000730002B0BDBFB7903F01F02074997F9F5
:100B500007305B09012000FA02F241F8232000BFB0
:100B60000C37BD465DF8047B704700BF00E100E034
:100B700080B483B000AF03463960FB7197F907304A
:100B8000002B0ADB3B68DAB20C4997F907305201B7
:100B9000D2B20B4483F800230AE03B68DAB208497A
:100BA000FB7903F00F03043B5201D2B20B441A76D7
:100BB00000BF0C37BD465DF8047B704700E100E0E4
:100BC00000ED00E080B483B000AF78607B681B0B61
:100BD0005BB218460C37BD465DF8047B704780B4A5
:100BE00083B000AF78607B681B6800BF0C37BD46E0
:100BF0005DF8047B704780B483B000AF78607B6899
:100C00000122C3F8002500BF0C37BD465DF8047B08
:100C1000704780B483B000AF786039607B683A6811
:100C2000C3F8042300BF0C37BD465DF8047B704752
:100C300080B483B000AF786039607B68D3F8042358
:100C40003B68134018460C37BD465DF8047B70477F
:100C500080B483B000AF78607B680122C3F8282598
:100C600000BF0C37BD465DF8047B704780B483B08D
:100C700000AF78607B680022C3F8282500BF0C37DE
:100C8000BD465DF8047B704780B485B000AFF86066
:100C9000B9607A603B60FB68BA68C3F82025FB68DE
:100CA0007A68C3F82425FB683A68C3F81C2500BF9E
:100CB0001437BD465DF8047B704780B483B000AF45
:100CC00078607B68D3F81C3518460C37BD465DF854
:100CD000047B704780B483B000AF78600B46FB7034
:100CE000FB787A68134401221A6000BF0C37BD46B6
:100CF0005DF8047B704780B582B000AF78600B462A
:100D00007B807B887A68134400221A607B887A682B
:100D100013441846FFF763FF00BF0837BD4680BD88
:100D200080B483B000AF78600B467B807B887A68A4
:100D300013441B68002B14BF01230023DBB21846A9
:100D40000C37BD465DF8047B704780B483B000AFBC
:100D5000786039607B68D3F800223B681A437B686F
:100D6000C3F8002200BF0C37BD465DF8047B704716
:100D700080B483B000AF78600B46FB70FA787B6874
:100D8000C3F8082500BF0C37BD465DF8047B7047EB
:100D900080B483B000AF78607B68D3F80C35184618
:100DA0000C37BD465DF8047B704780B483B000AF5C
:100DB00078607B68D3F8183518460C37BD465DF867
:100DC000047B704780B483B000AF78607B68D3F851
:100DD000483518460C37BD465DF8047B704780B433
:100DE00083B000AF786039607B683A68C3F840250B
:100DF00000BF0C37BD465DF8047B704780B483B0FC
:100E000000AF78600B46FB70FA787B68C3F810255A
:100E100000BF0C37BD465DF8047B704780B483B0DB
:100E200000AF78600B46FB70FA787B68C3F8042546
:100E300000BF0C37BD465DF8047B704780B582B0BB
:100E400000AF78607B681B68184600F068F80346BE
:100E5000002B06D10C4B0D4A40F229210C4800F022
:100E600079FE786800F080F80346002B06D0094B25
:100E7000064A40F22E21064800F06CFE4FF0A043D7
:100E800018460837BD4680BDB8020000D4030000F4
:100E9000DC0200000003000080B584B000AF786081
:100EA000084611461A460346FB700B46BB701346B4
:100EB0007B703B1D1846FFF7C1FFF8600023BB6045
:100EC000FA78BB785B001A437B789B001A433B7E21
:100ED0001B021A433B7F1B041343BA681343BB60D6
:100EE0007A68FB6802F5E072B96843F8221000BF27
:100EF0001037BD4680BD80B584B002AF78600B4628
:100F0000FB70FB7800220192002200920022002157
:100F10007868FFF7C1FF00BF0837BD4680BD80B4C9
:100F200085B000AF78607B685B09BB600023FB6025
:100F3000BB68002B03D14FF0FF33FB6000BF7B6821
:100F400003F01F037B60FA687B6822FA03F303F067
:100F50000103002B14BF01230023DBB21846143712
:100F6000BD465DF8047B704780B485B000AF786003
:100F70007B681B68FB60FB6803F01F027B681A60DC
:100F8000FB685B0918461437BD465DF8047B704763
:100F900080B582B000AF4FF480713548FFF7C0FED6
:100FA0000346002B1AD001213148FFF741FE0346CA
:100FB000002B13D04FF480712D48FFF79CFE4FF4A7
:100FC00080733B802A48FFF7E3FE03465BB2BB70A9
:100FD000284B1B683A4692E8030098474FF4827109
:100FE0002348FFF79DFE0346002B20D00221204816
:100FF000FFF71EFE0346002B19D04FF482711C48E8
:10100000FFF779FE4FF482733B801948FFF7CDFE5E
:1010100003461BB27B801648FFF7D4FE03469BB203
:10102000BB80144B1B683A4692E8030098474FF484
:1010300084710F48FFF774FE0346002B14D004217F
:101040000B48FFF7F5FD0346002B0DD04FF48471DC
:101050000748FFF750FE4FF484733B80054B1B6835
:101060003A4692E80300984700BF0837BD4680BD66
:10107000002001404405002080B584B000AF7860B6
:1010800039607B68002B05D1554B564A6121564883
:1010900000F060FD3B68002B05D1544B514A6221A2
:1010A000514800F057FD524B1B78002B03D0514B99
:1010B000BB60BB6890E0504A3B6813607B681A7E57
:1010C0004E4B1A707B681B7E83F00103DBB2002B52
:1010D00016D07B685B6800211846FFF70CFF7B6821
:1010E0009B6800211846FFF706FF7B68DB68B3F1B9
:1010F000FF3F05D07B68DB6800211846FFF7FBFE49
:101100007B685B7E83F00103DBB2002B08D07B6839
:1011100059687B689A687B68DB683948FFF7B4FDDB
:101120007B685B7819463648FFF722FE3448FFF7A4
:10113000C4FD0346B3F1FF3F0BD07B681B69194622
:101140002F48FFF74CFE7B681B7D19462C48FFF7A4
:1011500065FE7B685B7D002B03D02948FFF778FD97
:1011600002E02748FFF782FD0423FB607B681B78C1
:10117000102B0DD001212248FFF7E7FD7B681B787B
:1011800019461F48FFF73AFEFB6843F00203FB6075
:101190007B689B7D002B03D0FB6843F00103FB6061
:1011A000F9681748FFF735FD1548FFF70BFD0346B3
:1011B0001A467B68DB7D19461046FFF7D9FC1048BC
:1011C000FFF700FD03461846FFF7B4FC084B012269
:1011D0001A700C4BBB60BB6818461037BD4680BD0B
:1011E00004030000C4030000100300003C030000DF
:1011F000480500200500AD0B4405002049050020EE
:10120000002001400000AD0B80B500AF0A4B1B78F9
:10121000012B05D0094B0A4AC4210A4800F09AFC68
:101220000948FFF7E8FC00210748FFF753FD024B90
:1012300002221A7000BF80BD480500207403000020
:10124000F003000010030000002001400649074A97
:10125000074B9B1A03DD043BC858D050FBDC00F061
:1012600043FBFFF769F90000103000000000002088
:1012700024050020FEE7FEE7FEE7FEE7FEE7FEE7C7
:10128000FEE7FEE7FEE7FEE780B483B000AF1F4B4A
:101290001B68B3F1FF3F0AD11D4B1B68DBB27B60BB
:1012A0001C4B1B681B0903F00F033B6005E0174B49
:1012B0001B687B60184B1B683B607B68062B1DD14D
:1012C0003B68033B042B17D801A252F823F000BF60
:1012D000E5120000E9120000ED120000F11200001A
:1012E000F512000001230AE0012308E0012306E0D3
:1012F000012304E0012302E0012300E0002318465B
:101300000C37BD465DF8047B704700BF300100100C
:10131000E00F00F0E80F00F03401001080B483B05B
:1013200000AF194B1B68DBB27B60184B1B681B09B5
:1013300003F00F033B607B68062B1DD13B68033B2A
:10134000042B17D801A252F823F000BF611300004C
:1013500065130000691300006D1300007113000095
:1013600001230AE0002308E0002306E0002304E054
:10137000002302E0002300E0002318460C37BD469E
:101380005DF8047B704700BFE00F00F0E80F00F04D
:1013900080B483B000AF1F4B1B68B3F1FF3F0AD18D
:1013A0001D4B1B68DBB27B601C4B1B681B0903F0E9
:1013B0000F033B6005E0174B1B687B60184B1B68F5
:1013C0003B607B68062B1DD13B68033B042B17D881
:1013D00001A252F823F000BFED130000F11300004A
:1013E000F5130000F9130000FD13000001230AE0CB
:1013F000012308E0012306E0012304E0012302E0C9
:10140000012300E0002318460C37BD465DF8047B3D
:10141000704700BF30010010E00F00F0E80F00F04F
:101420003401001080B483B000AF194B1B68DBB2ED
:101430007B60184B1B681B0903F00F033B607B6844
:10144000062B1DD13B68033B042B17D801A252F891
:1014500023F000BF691400006D1400007114000037
:10146000751400007914000001230AE0002308E04D
:10147000002306E0002304E0002302E0002300E054
:10148000002318460C37BD465DF8047B704700BF4B
:10149000E00F00F0E80F00F080B483B000AF1F4B06
:1014A0001B68B3F1FF3F0AD11D4B1B68DBB27B60A9
:1014B0001C4B1B681B0903F00F033B6005E0174B37
:1014C0001B687B60184B1B683B607B68062B1DD13B
:1014D0003B68033B042B17D801A252F823F000BF4E
:1014E000F5140000F9140000FD14000001150000BF
:1014F0000515000001230AE0012308E0012306E0AE
:10150000012304E0012302E0012300E00023184648
:101510000C37BD465DF8047B704700BF30010010FA
:10152000E00F00F0E80F00F03401001080B483B049
:1015300000AF194B1B68DBB27B60184B1B681B09A3
:1015400003F00F033B607B68062B1DD13B68033B18
:10155000042B17D801A252F823F000BF7115000028
:1015600075150000791500007D150000811500003B
:1015700001230AE0002308E0002306E0002304E042
:10158000002302E0002300E0002318460C37BD468C
:101590005DF8047B704700BFE00F00F0E80F00F03B
:1015A00080B483B000AF194B1B68DBB27B60184B73
:1015B0001B681B0903F00F033B607B68062B1DD1E2
:1015C0003B68033B042B17D801A252F823F000BF5D
:1015D000E5150000E9150000ED150000F11500000B
:1015E000F515000001230AE0002308E0002306E0CF
:1015F000002304E0002302E0002300E0002318465B
:101600000C37BD465DF8047B704700BFE00F00F06B
:10161000E80F00F080B483B000AF1F4B1B68B3F13C
:10162000FF3F0AD11D4B1B68DBB27B601C4B1B6864
:101630001B0903F00F033B6005E0174B1B687B6041
:10164000184B1B683B607B68062B1DD13B68033B36
:10165000042B17D801A252F823F000BF7116000026
:1016600075160000791600007D1600008116000036
:1016700000230AE0002308E0012306E0012304E040
:10168000012302E0012300E0002318460C37BD4689
:101690005DF8047B704700BF30010010E00F00F0E0
:1016A000E80F00F03401001080B483B000AF1F4B8E
:1016B0001B68B3F1FF3F0AD11D4B1B68DBB27B6097
:1016C0001C4B1B681B0903F00F033B6005E0174B25
:1016D0001B687B60184B1B683B607B68062B1DD129
:1016E0003B68033B042B17D801A252F823F000BF3C
:1016F00005170000091700000D1700001117000062
:101700001517000001230AE0012308E0012306E089
:10171000012304E0012302E0012300E00023184636
:101720000C37BD465DF8047B704700BF30010010E8
:10173000E00F00F0E80F00F03401001080B483B037
:1017400000AF1F4B1B68B3F1FF3F0AD11D4B1B6855
:10175000DBB27B601C4B1B681B0903F00F033B6073
:1017600005E0174B1B687B60184B1B683B607B6870
:10177000062B1DD13B68033B042B17D801A252F85E
:1017800023F000BF991700009D170000A11700006B
:10179000A5170000A917000001230AE0012308E0B3
:1017A000012306E0012304E0012302E0012300E01D
:1017B000002318460C37BD465DF8047B704700BF18
:1017C00030010010E00F00F0E80F00F034010010CD
:1017D00080B483B000AF174B1B687B60164B1B684F
:1017E0003B607B68062B1DD13B68033B042B17D85D
:1017F00001A252F823F000BF0D18000011180000DC
:1018000015180000191800001D18000000230AE038
:10181000002308E0002306E0012304E0012302E0A6
:10182000012300E0002318460C37BD465DF8047B19
:10183000704700BF300100103401001080B483B045
:1018400000AF174B1B687B60164B1B683B607B68C7
:10185000062B1DD13B68033B042B17D801A252F87D
:1018600023F000BF791800007D18000081180000E7
:10187000851800008918000000230AE0002308E012
:10188000002306E0002304E0012302E0012300E03E
:10189000002318460C37BD465DF8047B704700BF37
:1018A000300100103401001080B500AFFFF7C6FF13
:1018B0000346002B07D04FF010234FF08042D3F89F
:1018C0000832C2F8583500BF80BD000080B400AFB8
:1018D000034B044A1A6000BFBD465DF8047B7047A5
:1018E000000000200090D00380B500AFFFF7CCFCD3
:1018F0000346002B06D0864B1B681B0A854A03F063
:101900001F031360FFF70AFD0346002B02D0824B32
:10191000824A1A60FFF73CFD0346002B06D0804B3D
:101920001B685B0B7F4A03F007031360FFF77AFD28
:101930000346002B05D07C4BDB687B4A23F0807389
:10194000D360FFF7A9FD0346002B0ED04FF0804374
:101950000022C3F80C214FF080430022C3F810216D
:101960004FF080430022C3F83825FFF7DFFD034620
:10197000002B02D06D4B03221A60FFF711FE0346C5
:10198000002B0BD06A4B05221A606A4B01221A60A9
:10199000694B00221A60694B3F221A60FFF73AFE3A
:1019A0000346002B76D04FF08053654AD3F80434B9
:1019B000C2F820354FF08053614AD3F80834C2F89A
:1019C00024354FF080535E4AD3F80C34C2F82835E2
:1019D0004FF080535A4AD3F81034C2F82C354FF0E8
:1019E0008053574AD3F81434C2F830354FF080533F
:1019F000534AD3F81834C2F834354FF08053504A64
:101A0000D3F81C34C2F840354FF080534C4AD3F819
:101A10002034C2F844354FF08053494AD3F8243477
:101A2000C2F848354FF08053454AD3F82834C2F8FD
:101A30004C354FF08053424AD3F82C34C2F850351D
:101A40004FF080533E4AD3F83034C2F854354FF04B
:101A500080533B4AD3F83434C2F860354FF080539A
:101A6000374AD3F83834C2F864354FF08053344ADB
:101A7000D3F83C34C2F868354FF08053304AD3F87D
:101A80004034C2F86C354FF080532D4AD3F84434BB
:101A9000C2F87035FFF708FE0346002B05D0294B2E
:101AA0001B68294A03F04F031360FFF747FE034604
:101AB000002B0DD04FF08043D3F8003403F0010326
:101AC000002B05D04FF080436FF00102C3F80024D3
:101AD000FFF77EFE0346002B05D01C4B1B681B4AFC
:101AE00043F4806313601A4BD3F88830184A43F4E8
:101AF0007003C2F88830BFF34F8F00BFBFF36F8F02
:101B000000BFFFF7D1FEFFF7E1FE00BF80BD00BFC1
:101B1000240300104035014074C007400DF0ADBAF9
:101B2000440200103C050040F0ED00E0A00500403C
:101B30001056004088560040185600401456004089
:101B400000C0004058020010E40E00403C17004066
:101B500000ED00E01FB514461A46094B1B68054608
:101B6000D8684CB1074B0091CDE9013406492B46AA
:101B700000F03CF800F02CFB044B1C46F3E700BFE0
:101B800004000020010400000E0400003C040000DA
:101B9000002301461A46184600F022BB08B5074B41
:101BA000044613B1002100F07DFB054B1868836AE1
:101BB00003B19847204601F0F3F900BFA5220000C9
:101BC0004004000038B5074D074C641BA4101CB935
:101BD000BDE8384001F0EEB9013C55F82430984793
:101BE000F5E700BFC02F0000C42F00000EB403B5FE
:101BF000014603AB054853F8042B0068019300F03D
:101C00006BF802B05DF804EB03B0704704000020ED
:101C100070B50D4D0D4C641BA4100026A64209D1D1
:101C20000B4D0C4C01F0BEF9641BA4100026A6421B
:101C300005D170BD55F8043B98470136EEE755F8DD
:101C4000043B98470136F2E7B02F0000B02F0000A8
:101C5000B02F0000B42F00000A44914200F1FF337E
:101C600000D1704710B511F8014B03F8014F9142B4
:101C7000F9D110BD02440346934200D1704703F8E6
:101C8000011BF9E79368013B002B10B4936008DA5D
:101C90009469A34201DB0A2903D15DF8044B00F0EB
:101CA000D7B91368581C1060197008465DF8044BCA
:101CB0007047F8B506460F461446D518AC4201D118
:101CC000002007E014F8011B3A463046FFF7DAFF20
:101CD000431CF3D1F8BD00002DE9F04F0D469DB037
:101CE00014469846064618B183690BB900F050FCBB
:101CF000884B9D421BD175686B6ED90705D4AB89A3
:101D00009A0502D4A86D00F0E1FCAB891B0701D550
:101D10002B69EBB92946304600F0ECF9C0B16B6E87
:101D2000DC070ED54FF0FF301DB0BDE8F08F7A4BC9
:101D30009D4201D1B568DFE7784B9D4208BFF56849
:101D4000DAE7AB899805EDD4A86D00F0C1FCE9E7AE
:101D50000023099320238DF82930CDF80C803023FF
:101D6000DFF8BC818DF82A304FF0010923469A46EE
:101D700013F8012B0AB1252AF9D1BAEB040B0BD0C9
:101D80005B46224629463046FFF793FF013000F0BC
:101D9000A980099A5A4409929AF80030002B00F061
:101DA000A18000234FF0FF32CDE905230AF1010A9B
:101DB000049307938DF853301A935446052214F870
:101DC000011B574800F0ECFC049AD8B9D10644BF77
:101DD00020238DF85330130744BF2B238DF8533045
:101DE0009AF800302A2B15D0079A544600204FF05D
:101DF0000A0C214611F8013B303B092B4DD9B0B1FB
:101E0000079214E0A0EB080309FA03F313430493C9
:101E1000A246D2E7039B191D1B680391002BBBBF91
:101E20005B4242F0020207930793B8BF0492237803
:101E30002E2B0CD163782A2B34D1039B1A1D1B68DF
:101E40000392002BB8BF4FF0FF3302340593DFF845
:101E5000E0A021780322504600F0A2FC38B1049B98
:101E6000A0EB0A004022824013430134049314F88B
:101E7000011B2C488DF82810062200F091FC002848
:101E80003FD0294B1BBB039B073323F007030833C9
:101E90000393099B3B44099368E70CFB02320C4611
:101EA0000120A6E700230134059319464FF00A0CE0
:101EB000204610F8012B303A092A03D9002BC6D04E
:101EC0000591C4E70CFB012104460123F0E703ABB5
:101ED00000932A46154B04A93046AFF3008007460D
:101EE000781CD6D16B6ED90705D4AB899A0502D47C
:101EF000A86D00F0EDFBAB895B063FF513AF0998C9
:101F000012E703AB00932A46084B04A9304600F0C1
:101F1000E5FDE4E7780400009804000058040000A0
:101F2000440400004E04000000000000B31C000048
:101F30004A0400000FB40A4B13B51C6824B1A3690E
:101F400013B9204600F024FB05AB049AA168019365
:101F50002046FFF7C1FE02B0BDE8104004B0704754
:101F60000400002070B50E46054618B183690BB910
:101F700000F00EFBAB69AC6813B9284600F008FB13
:101F80002C4B9C4220D16C68636EDB0705D4A3897F
:101F9000980502D4A06D00F099FBA38919071DD5FF
:101FA0002369DBB1013EA36816F8011F013BA36062
:101FB00039BB002B38DA22460A21284600F048F8BF
:101FC000013011D00A2511E01B4B9C4201D1AC68B5
:101FD000DAE71A4B9C4208BFEC68D5E72146284651
:101FE00000F088F80028DDD04FF0FF35636EDA0787
:101FF00005D4A3899B0502D4A06D00F069FB284697
:1020000070BD002B04DAA2699A4206DC0A2904D0CA
:1020100023685A1C22601970C5E72246284600F042
:1020200017F80130BFD1DFE723680A255A1C226068
:102030001D70DBE7780400009804000058040000DD
:10204000024B01461868FFF78DBF00BF0400002057
:10205000F8B50E461446054618B183690BB900F071
:1020600097FA214B9C422BD16C68A369A360A3898A
:102070001A072FD523696BB323692068C01A6369D7
:10208000F6B28342374604DC2146284600F0ECF9DC
:1020900030BBA368013BA36023685A1C22601E70FA
:1020A00063690130834204D0A389DB0706D50A2E79
:1020B00004D12146284600F0D7F988B93846F8BD42
:1020C0000A4B9C4201D1AC68CFE7094B9C4208BF48
:1020D000EC68CAE72146284600F00CF80028CBD06F
:1020E0004FF0FF37EAE700BF7804000098040000D3
:1020F00058040000324B70B51D6806460C4625B1E9
:10210000AB6913B9284600F043FA2E4B9C420FD11D
:102110006C68A389B4F90C2019072CD4DD0611D4FE
:102120000923336042F04003A3814FF0FF303EE0CB
:10213000254B9C4201D1AC68EBE7244B9C4208BF85
:10214000EC68E6E7580712D5616B41B104F144032E
:10215000994202D0304600F073FB00236363A389E9
:1021600023F02403A3810023636023692360A389F0
:1021700043F00803A38123694BB9A38903F42073B7
:10218000B3F5007F03D02146304600F0C9FAA0899C
:10219000B4F90C2010F001030AD00023A360636996
:1021A0005B42A361236943B910F08000BAD170BDCE
:1021B000810758BF6369A360F4E70020F7E700BF19
:1021C0000400002078040000980400005804000077
:1021D00008B5062000F0DCFD012000F0E1FE000063
:1021E0002DE9F843DFF8B8800646D8F800001F460E
:1021F0000D46914600F06AFA254B1C6834B9254C0F
:102200001C60254B13B11B68C4F8883063681F2B12
:1022100007DDD8F8000000F05BFA4FF0FF30BDE8B2
:10222000F8834EB3D4F8880088B91C4B23B9D8F88A
:10223000000000F04CFAF0E74FF48470AFF3008038
:102240000028F4D00023C0E94033C4F88800636854
:1022500040F8239001229A4000EB8301D0F800312E
:102260001343C0F80031022EC1F8807002BFD0F8CD
:1022700004311343C0F804316368D8F800005A1CD5
:102280000233626044F8235000F022FA0020C6E7CF
:10229000D80500204C0500200000000000000000D0
:1022A000680000202DE9F74FDFF8A89000918046E4
:1022B000D9F80000DFF8A0A000F008FADAF8004032
:1022C00034B9D9F8000003B0BDE8F04F00F000BA0F
:1022D0006568D4F888706E1E013504EB850507F13A
:1022E000800B002EEDDB009B43B117B9013E043D8E
:1022F000F7E75BF82620009B9A42F7D161682A68CD
:102300000139B14216BF002366602B60002AEDD070
:10231000636801933FB1D7F80011012303FA06FC6B
:102320001CEA010F09D190476168019BDAF800208F
:102330009942C3D19442D9D0C0E7D7F8040157F8E5
:1023400026101CEA000F02D140469047ECE70846F1
:102350009047E9E768000020D80500208A892DE928
:10236000F041054610070C4658D44B68002B05DC9D
:102370000B6C002B02DC0020BDE8F081E66A002E29
:10238000F9D0002312F480522F68216A2B6032D0DA
:10239000606DA3895A0705D56368C01A636B0BB1DA
:1023A000236CC01A00230246E66A216A2846B04719
:1023B000431CA38906D129681D292BD8294A0A4123
:1023C000D60727D400226260D9042269226004D58E
:1023D000421C01D12B6803B96065616B2F60002935
:1023E000C9D004F14403994202D0284600F028FAEB
:1023F00000206063C0E701232846B047411CC8D1D4
:102400002B68002BC5D01D2B01D0162B01D12F60BE
:10241000B1E7A38943F04003A381ADE70F69002F23
:10242000A9D093070E6808BF4B690F6018BF00233F
:10243000A6EB07088B60B8F1000F9CDD216AA66A45
:1024400043463A462846B047002806DCA38943F0B5
:102450004003A3814FF0FF308EE70744A8EB00084C
:10246000E9E700BFFEFFBFDF38B50B6905460C4644
:1024700013B90025284638BD18B183690BB900F09F
:1024800087F8144B9C421BD16C68B4F90C30002BBC
:10249000EFD0626ED00704D4990502D4A06D00F08D
:1024A00015F928462146FFF759FF636EDA070546FE
:1024B000E0D4A3899B05DDD4A06D00F009F9D9E72C
:1024C000054B9C4201D1AC68DFE7044B9C4208BF3E
:1024D000EC68DAE778040000980400005804000073
:1024E000002310B50446C0E90033C0E9043383601B
:1024F00081814366C2818361194608225C30FFF7FF
:10250000B9FB054B6362054BA362054BE362054BC8
:102510002462236310BD00BFC92D0000EB2D000015
:10252000232E0000472E0000014900F0AFB800BF85
:102530006924000070B568234D1E5D430E4605F109
:10254000740100F0E9F9044640B10021C0E9001629
:102550000C30A06005F16802FFF78CFB204670BDCF
:10256000014800F0B3B800BFDE050020014800F0CC
:10257000AFB800BFDE050020014800F0A7B800BFDB
:10258000DF050020014800F0A3B800BFDF050020F0
:1025900010B50446FFF7F0FFA3691BB1BDE810407A
:1025A000FFF7F0BFC4E912332365134B134A1B68CE
:1025B000A262A34204BF0123A361204600F020F8D9
:1025C0006060204600F01CF8A060204600F018F87B
:1025D0000022E06004216068FFF782FFA06801220A
:1025E0000921FFF77DFFE06802221221FFF778FF43
:1025F0000123A361D2E700BF4004000029250000A9
:10260000F8B50746FFF7ACFF1E4B1E68B36913B958
:102610003046FFF7BDFF4836D6E90134013B03D50C
:1026200033680BB33668F7E7B4F90C50D5B9164BDD
:10263000E36004F15800656600F047F8FFF796FF85
:10264000C4E90155C4E904552560A561082229465D
:1026500004F15C00FFF70EFBC4E90D55C4E9125507
:102660002046F8BD6834D9E704213846FFF762FFF9
:10267000044630600028D5D1FFF778FF0C233B607B
:10268000EEE700BF400400000100FFFF2DE9F84322
:102690000646884600F148040027D4E90195B9F1BF
:1026A000010905D52468002CF7D13846BDE8F88328
:1026B000AB89012B07D9B5F90E30013303D0294678
:1026C0003046C04707436835E9E7704770477047B1
:1026D000704770B50C46B1F90E10002996B015463A
:1026E0001E460DDAA38913F0800F4FF000010CBFD6
:1026F0004FF480634023002031602B6016B070BD22
:102700006A4600F0B5FB0028ECDB019901F470414A
:10271000A1F50053594259414FF48063EBE70000A3
:102720008B8973B59D0706460C4607D504F1470310
:10273000236023610123636102B070BD01AB6A466F
:10274000FFF7C7FF00990546304600F0E5F848B9A5
:10275000B4F90C309A05EFD423F0030343F00203DD
:10276000A381E3E70D4BB362A389206043F08003AC
:10277000A381009B6361019B20615BB1B4F90E10E2
:10278000304600F087FB28B1A38923F0030343F010
:102790000103A381A3891D43A581CDE7292500005D
:1027A00001F0FF01102A2BDB10F0070F08D010F802
:1027B000013B013A8B422DD010F0070F42B3F6D106
:1027C000F0B441EA012141EA014122F007047FF01F
:1027D00000070023F0E80256083C85EA010586EA76
:1027E000010685FA47F5A3FA87F586FA47F6A5FAB2
:1027F00087F68EB9EED1F0BC01F0FF0102F00702BE
:1028000032B110F8013B013A83EA010313B1F8D168
:102810000020704701387047002D06BF3546033849
:10282000073815F0010F07D1013015F4807F02BF82
:10283000013015F4C03F0130F0BC0138704700BFD3
:1028400037B5002944D051F8043C0190002BA1F188
:102850000404B8BFE41800F03FFB1E4A0198136857
:1028600033B96360146003B0BDE8304000F03ABB98
:10287000A34208D9256861198B4201BF19685B68BA
:1028800049192160EDE71A465B680BB1A342FAD9FA
:1028900011685518A5420BD1246821445418A3424D
:1028A0001160E0D11C685B6853600C441460DAE787
:1028B00002D90C230360D6E7256861198B4204BF57
:1028C00019685B68636004BF491921605460CAE7F6
:1028D00003B030BDE005002070B50E4E0C463168E7
:1028E000054611B900F01CFA30602146284600F078
:1028F00017FA431C0AD0C41C24F00304A04207D0DA
:10290000211A284600F00CFA013001D14FF0FF34B3
:10291000204670BDE40500202DE9F041CD1C25F0D6
:10292000030508350C2D38BF0C25002D074601DBAB
:10293000A94205D90C233B6000263046BDE8F08152
:102940002E4E00F0C9FA33681C4634BB294638467F
:10295000FFF7C2FF431C04464DD134682646002EC3
:1029600040D123683146384604EB030800F0D8F91B
:1029700080453AD123680335ED1A25F00305083563
:102980000C2D38BF0C2529463846FFF7A5FF01302E
:102990002BD023682B4423600EE02268521B1ED4E8
:1029A0000B2A16D96119A342256018BF59606368C4
:1029B00008BF316062514B60384604F10B0600F0ED
:1029C00091FA26F00706231DF21AB6D09B1BA350DE
:1029D000B3E76268A3420CBF32605A60ECE723465B
:1029E0006468B2E734467668B9E70C233B60384642
:1029F00000F078FAA1E72560DEE700BFE0050020DF
:102A00002DE9F047164699468A680B69DDF8208063
:102A10009342B8BF1346336091F8432007460C46F3
:102A20000AB1013333602368990642BF3368023329
:102A30003360256815F0060506D104F1190AE3682C
:102A400032689B1AAB4226DC94F84320131E22689E
:102A500018BF012392062BD404F14302494638469D
:102A6000C04701301ED02368226903F00603042BFF
:102A700002BFE5683368ED1AA3680CBF25EAE57567
:102A800000259342C4BF9B1AED1800261A34B542A4
:102A90001AD1002008E00123524649463846C04773
:102AA000013003D14FF0FF30BDE8F0870135C6E7B4
:102AB000E1185A1C302081F84300224494F8451054
:102AC00082F843100233C7E70123224649463846BD
:102AD000C0470130E6D00136D9E700002DE9FF47B5
:102AE0000F7E0C9D782F914680460C469A4601F148
:102AF000430207D8622F0AD8002F00F0D480582F45
:102B000000F0C08004F1420584F842703AE0A7F179
:102B10006303152BF6D801A151F823F0752B0000A3
:102B2000892B0000052B0000052B0000052B000061
:102B3000052B0000892B0000052B0000052B000051
:102B4000052B0000052B00008D2C0000B52B00008C
:102B5000472C0000052B0000052B0000AF2C0000C7
:102B6000052B0000B52B0000052B0000052B0000F5
:102B70004F2C00002B681A1D1B682A6004F14205C7
:102B800084F8423001239FE020682B68070603F198
:102B90000401296001D51E6803E04606FBD5B3F9A0
:102BA0000060002E03DA2D23764284F843305A4821
:102BB0000A2312E02B682068191D2960050601D53B
:102BC0001E6802E04106FBD51E8853486F2F0CBFDC
:102BD00008230A23002184F843106568A560002DAE
:102BE000A2BF216821F0040121600EB9002D4BD055
:102BF0001546B6FBF3F103FB1167C75D05F8017DD0
:102C00003746BB420E46F4D9082B0BD12368DE07AA
:102C100008D5236961689942DEBF302305F8013C7D
:102C200005F1FF35521B2261CDF800A04B4603AAE7
:102C300021464046FFF7E4FE01304AD14FF0FF3015
:102C400004B0BDE8F087236843F0200323603348D5
:102C5000782784F84570236829681F0651F8046BAB
:102C600002D45F0648BFB6B2DF0748BF43F0200377
:102C7000296048BF23601EB9236823F02003236026
:102C80001023A7E72448E4E71546BDE72B6826682C
:102C90006169181D286035061B6801D5196002E0BE
:102CA0007006FBD51980002323611546BCE72B680D
:102CB0001A1D2A601D68626800212846FFF770FD12
:102CC00008B1401B606063682361002384F84330CF
:102CD000AAE723692A4649464046D0470130ADD08D
:102CE00023689B0713D4E068039B9842B8BF18463B
:102CF000A6E70123324649464046D04701309DD0E1
:102D00000135E36803995B1AAB42F2DCEBE700257F
:102D100004F11906F5E700BFB8040000C90400007B
:102D200038B5064D0023044608462B6000F02AF90A
:102D3000431C02D12B6803B1236038BDE805002095
:102D40001F2938B504460D4604D9162303604FF0F9
:102D5000FF3038BD426C12B152F821304BB92046D9
:102D600000F030F82A4601462046BDE8384000F021
:102D700017B8012B0AD0591C03D116230360012078
:102D8000E7E7002442F82540284698470020E0E77E
:102D9000024B01461868FFF7D3BF00BF04000020B4
:102DA00038B5074D00230446084611462B6000F055
:102DB000D1F8431C02D12B6803B1236038BD00BF9A
:102DC000E805002000F0B6B810B50C46B1F90E10B9
:102DD00000F08EF80028ABBF636DA3891B1823F4A5
:102DE0008053ACBF6365A38110BD2DE9F0411F4640
:102DF0008B89DB0505460C46164605D5B1F90E1044
:102E00000223002200F056F8A389B4F90E1023F42F
:102E10008053A38132463B462846BDE8F041FDF78A
:102E2000DBBC10B50C46B1F90E1000F043F8431CA2
:102E3000A38915BF606523F4805343F48053A381B5
:102E400018BFA38110BDB1F90E1000F001B8000049
:102E500038B5064D0023044608462B6000F05AF8AA
:102E6000431C02D12B6803B1236038BDE805002064
:102E700038B5074D00230446084611462B6000F084
:102E800051F8431C02D12B6803B1236038BD00BF49
:102E9000E805002038B5064D0023044608462B609F
:102EA00000F050F8431C02D12B6803B1236038BDF9
:102EB000E805002038B5074D0446084611460022B3
:102EC0002A601A4600F04EF8431C02D12B6803B169
:102ED000236038BDE80500200148FFF7F7BB00BFBD
:102EE000DD0500200148FFF7F3BB00BFDD05002032
:102EF00038B5074D04460846114600222A601A4696
:102F000000F038F8431C02D12B6803B1236038BDB0
:102F1000E8050020024B58221A604FF0FF3070473E
:102F2000E8050020024B58221A604FF0FF3070472E
:102F3000E8050020024B58221A604FF0FF3070471E
:102F4000E8050020024B58221A600020704700BF9D
:102F5000E8050020024B58221A604FF0FF307047FE
:102F6000E8050020024B58221A604FF0FF307047EE
:102F7000E8050020024B58221A604FF0FF307047DE
:102F8000E8050020044A05491368002B08BF0B46DA
:102F90001844106018467047EC050020F00500202A
:102FA000FEE700BFF8B500BFF8BC08BC9E467047FE
:102FB00015050000F8B500BFF8BC08BC9E46704778
:082FC000F10400000000000014
:102FC80010300000000000201B0000007C300000D2
:102FD80024050020000000007C30000024050020AB
:102FE800000000007C3000002405002000000000E4
:102FF8002405002033000000F00500200000000038
:08300800F005002000000000AB
:103010000090D003080000200000000078040000A9
:1030200098040000580400000000000000000000A8
:103030000000000000000000000000000000000090
:103040000000000000000000000000000000000080
:103050000000000000000000000000000000000070
:103060000000000000000000000000000000000060
:0C3070000000000000000000DC05002053
:10307C000000000000000000000000000000000044
:10308C000000000000000000000000000000000034
:10309C000000000000000000000000000000000024
:1030AC000000000000000000000000000000000014
:040000030000124D9A
:00000001FF
