:020000040800F2
:100000000050002019290008612900086129000812
:10001000612900086129000861290008000000002A
:10002000000000000000000000000000612900083E
:10003000612900080000000061290008612900080A
:100040006129000861290008612900086129000868
:100050006129000861290008612900086129000858
:100060006129000861290008612900086129000848
:100070006129000861290008612900086129000838
:100080006129000861290008612900086129000828
:100090006129000861290008612900086129000818
:1000A0006129000861290008612900086129000808
:1000B00061290008612900086129000861290008F8
:1000C00061290008612900086129000861290008E8
:1000D00061290008612900086129000861290008D8
:1000E000612900086129000861290008000000005A
:1000F0000000000000000000000000000000000000
:1001000000000000000000005FF808F1000000009F
:1001100000000000000000000000000000000000DF
:1001200000000000000000000000000000000000CF
:1001300000000000000000000000000000000000BF
:1001400000000000000000000000000000000000AF
:10015000000000000000000000000000000000009F
:10016000000000000000000000000000000000008F
:10017000000000000000000000000000000000007F
:10018000000000000000000000000000000000006F
:10019000000000000000000000000000000000005F
:1001A000000000000000000000000000000000004F
:1001B000000000000000000000000000000000003F
:1001C000000000000000000000000000000000002F
:1001D000000000000000000000000000000000001F
:1001E000000000000000000000000000000000000F
:1001F00000000000000000000000000000000000FF
:1002000010B5054C237833B9044B13B10448AFF350
:1002100000800123237010BD0000002000000000BA
:100220000433000808B5034B1BB103490348AFF37F
:10023000008008BD00000000040000200433000816
:1002400080B584B000AF05211A4800F084F9194840
:1002500000F074F9B860174800F070F9B8607221C6
:10026000144801F073F90421124800F0D7FA124A39
:100270000421104800F090F960210E4801F066F961
:100280003B4600221A60C3F803200A4800F056F9E2
:10029000F86008E0074800F051F9F8603B4605496E
:1002A000184600F0E7F8FB6803F00403002BF1D0D8
:1002B000C9E700BF1C000020F032000880B584B000
:1002C00000AF3B1D00221A60C3F8032005212F4810
:1002D00000F062F870212D4801F038F963212B48B5
:1002E00001F034F90521294800F056F80221274889
:1002F00000F0D8FA254800F022FA0346FB73FB7B96
:1003000083F00103DBB2002B00D000BE62211F4846
:1003100001F01CF91D4800F053F90346BB731B485C
:1003200000F05BF903467B730121184800F01CFBC9
:100330001749164800F070FB0021144800F04CFAF1
:1003400049F64041114800F0D9FB12490F4800F02E
:1003500021FC02210D4800F071FB01210B4800F047
:100360007BFA0021094800F0CCFF0321074800F088
:10037000C8FF6021054801F0E9F83B1D0349184614
:1003800000F078F8FFF75CFF00BFFDE71C000020DD
:1003900060AFD6198038010080B582B000AF7860B8
:1003A0000B46FB70786800F0D1FF7B68FA7883F821
:1003B0001021786801F088F9786800F053F9034655
:1003C0001946786800F082F900BF0837BD4680BD45
:1003D00080B485B000AF78600B46FB701346BB70ED
:1003E000FB7803F00103002B14BF01230023DBB2D1
:1003F0003B72FB785B08DBB27B72BB7803F00103D6
:10040000002B14BF01230023DBB2BB72BB785B0857
:1004100003F00103002B14BF01230023DBB2FB72A6
:10042000BB789B0803F00103002B14BF01230023BA
:10043000DBB23B73BB78DB08DBB203F00103DBB25A
:100440007B73BB781B0903F00103002B14BF01234E
:100450000023DBB2BB737B681A4607F108031868F8
:10046000106099889B799180937178681437BD46A4
:1004700080BC704780B582B000AF786039603B685F
:1004800019783B685A787B681846FFF7A1FF7868AF
:100490000837BD4680BD80B584B000AF7860396054
:1004A0000023BB8107F10C0202238D21386801F083
:1004B000B1F8797B3A7B7B681846FFF789FF78684B
:1004C0001037BD4680BD80B584B000AF78600B4664
:1004D000FB700023FB600023BB6007F108020423CC
:1004E000FA21786801F096F83B7A1B06FA68134304
:1004F000FB607B7A1B04FA681343FB60BB7A1B0228
:10050000FA681343FB60FB7A1A46FB681343FB60EF
:10051000FB78002B0DD007F10803042200211846B8
:1005200002F0D2FE07F108020423FA21786801F0F4
:1005300091F8FB6818461037BD4680BD80B582B083
:1005400000AF786001217868FFF7BDFF03461846C9
:100550000837BD4680BD80B584B000AF7860396093
:100560000023FB603B681B0EDBB23B733B681B0C3C
:10057000DBB27B733B681B0ADBB2BB733B68DBB24D
:10058000FB7307F10C0204235021786801F062F834
:1005900000BF1037BD4680BD80B584B000AFF860A5
:1005A000B9607A60BB68802B06D8BB687A68FF2187
:1005B000F86801F04FF800E000BF1037BD4680BD7D
:1005C00080B582B000AF7860F021786800F0EBFF72
:1005D000034618460837BD4680BD80B582B000AFDF
:1005E0007860F121786800F0DEFF0346184608378E
:1005F000BD4680BD80B483B000AF78607B6893F85F
:100600001031013B052B1BD801A252F823F000BF8B
:10061000290600082D0600083106000835060008E6
:10062000390600083D060008084B0AE0084B08E0C0
:10063000084B06E0084B04E0084B02E0084B00E0E2
:10064000002318460C37BD4680BC704700366E014B
:1006500040787D0180BA8C01006CDC0280F0FA02E7
:100660000075190380B483B000AF78607B6893F89D
:100670001031042B09D07B6893F81031052B04D07E
:100680007B6893F81031062B01D1012300E0002391
:1006900003F00103DBB218460C37BD4680BC70473F
:1006A00080B584B000AF78607868FFF7A3FFF8608A
:1006B0007868FFF7D7FF0346002B02D0FB685B0882
:1006C00000E0FB6818461037BD4680BD80B584B099
:1006D00000AF78600B46FB706D21786800F063FF17
:1006E0000346FB73FB78002B04D0FB7B43F008032D
:1006F000FB7303E0FB7B23F00803FB73FB7B1A46D1
:100700006D21786800F069FF00BF1037BD4680BDDD
:1007100080B584B000AF78606D21786800F043FF49
:100720000346FB73FB7BDB0803F00103002B14BFC4
:1007300001230023DBB218461037BD4680BD80B5CB
:1007400088B000AFF8606D21F86800F02CFF034618
:10075000FB76FB7E43F00103FB76FB7E1A466D21A0
:10076000F86800F03AFF07F11403F9681846FFF73C
:1007700092FE0023FB6113E0142000F0B1FF3B4622
:10078000F9681846FFF787FE07F114033A46106828
:1007900018609188927999809A71FB690133FB61A5
:1007A000BB7E83F00103DBB2002B02D0FB69092B77
:1007B000E2DDFB690A2B05D1BB7D83F00103DBB2CF
:1007C000002B01D0012300E0002303F00103DBB282
:1007D00018462037BD4680BD80B584B000AF786034
:1007E0000B46FB702E21786800F0DDFE0346FB739C
:1007F000FB7B03F03F03FB73FB789B015AB297F935
:100800000F3013435BB2FB73FB7B1A462E217868D3
:1008100000F0E3FE00BF1037BD4680BD80B584B058
:1008200000AF786039603B68B3F5803F10D2002399
:10083000BB813B681B0ADBB23B733B68DBB27B735B
:1008400007F10C0202233121786800F003FF00E079
:1008500000BF1037BD4680BD80B584B000AF786062
:100860000B46FB702D21786800F09DFE0346FB735C
:10087000FB78012B02D0022B05D009E0FB7B03F0B3
:100880007F03FB7304E0FB7B63F07F03FB7300BF1C
:10089000FB7B1A462D21786800F09FFE00BF1037C1
:1008A000BD4680BD80B584B000AF78600B46FB705C
:1008B0000023FB730023BB73FB78032B4FD801A2EB
:1008C00052F823F0D5080008DF080008E9080008FE
:1008D000F30800080223FB730023BB730EE001231F
:1008E000FB730123BB7309E00323FB730023BB737A
:1008F00004E00223FB730123BB7300BF052178686A
:1009000000F051FE03463B736521786800F04BFE12
:1009100003467B733B7B03F01F033B73FB7B5B0155
:100920005AB297F90C3013435BB23B73BB7B002B7D
:1009300004D07B7B43F004037B7303E07B7B23F0D9
:1009400004037B733B7B1A460521786800F045FE63
:100950007B7B1A466521786800F03FFE00E000BF0F
:100960001037BD4680BD00BF80B584B000AF786051
:100970000B46FB700521786800F015FE0346FB73FB
:10098000FB78002B02D0012B05D009E0FB7B23F084
:100990001003FB7304E0FB7B43F01003FB7300BF09
:1009A000FB7B1A460521786800F017FE00BF103760
:1009B000BD4680BD80B584B000AF7860396000234B
:1009C000FB600521786800F0EEFD03463B733B7B3E
:1009D00023F00F03DBB23B733A7B3B681B0EDBB2A9
:1009E00003F00F03DBB21343DBB23B733B681B0C1A
:1009F000DBB27B733B681B0ADBB2BB733B68DBB2C9
:100A0000FB7307F10C0204230521786800F022FE35
:100A100000BF1037BD4680BD80B584B000AF7860A0
:100A200039603968786800F0D3F8F860F968786858
:100A3000FFF7C0FF00BF1037BD4680BD80B584B052
:100A400000AF78600B46FB701021786800F0ABFDBA
:100A50000346FB73FB7B03F00F03FB73FB781B0167
:100A60005AB297F90F3013435BB2FB73FB7B1A4604
:100A70001021786800F0B1FD00BF1037BD4680BD81
:100A800080B584B000AF78600B467B8013467B70E6
:100A90007B780F2B28BF0F237B70174B1B88BB81E4
:100AA0000023BB731021786800F07DFD0346BB7303
:100AB0007B881B0A9BB2DBB23B737B88DBB27B7308
:100AC000BB7B23F00F03DBB2BB73BB7B5AB297F93E
:100AD000013003F00F035BB213435BB2DBB2BB73B5
:100AE00007F10C0203230E21786800F0B3FD00BF6C
:100AF0001037BD4680BD00BFF832000880B584B015
:100B000000AF786039600023FB730023BB8107F1DD
:100B10000F0307F10C023968786800F029FABB89E5
:100B2000FA7B19467868FFF7ABFF00BF1037BD4668
:100B300080BD80B584B000AF78600B46FB70134673
:100B4000BB70BB780F2B21D80023BB8111217868A3
:100B500000F029FD03463B733B7B23F00F03DBB220
:100B60003B733B7B5AB297F9023003F00F035BB241
:100B700013435BB2DBB23B73FB787B7307F10C0270
:100B800002231121786800F065FD00E000BF1037F6
:100B9000BD4680BD80B584B000AF786039603968EB
:100BA000786800F0EDFA0346FB73FB7B3A68194660
:100BB000786800F011FB0346BB73FA7BBB7B1946D8
:100BC0007868FFF7B6FF00BF1037BD4680BD000054
:100BD00080B58EB000AF78603960386802F00EF8EA
:100BE00002460B46C7E90C23786800F077FB034602
:100BF000002B03D14FF000022D4B02E04FF000021A
:100C00002C4BC7E90A237868FFF782FD0346002BC7
:100C100004D04FF000024FF0804302E04FF000029A
:100C2000254BC7E908237868FFF7E4FC034618461C
:100C300001F0E4FF02460B46C7E906234FF000022D
:100C40001E4BC7E904234FF000024FF08043D7E961
:100C50000A0102F077F902460B4610461946D7E919
:100C6000082302F045F802460B4610461946D7E91C
:100C7000062302F067F902460B46C7E90223D7E9CB
:100C80000223D7E90C0102F033F802460B46104666
:100C90001946D7E9042302F02BF802460B4610460A
:100CA000194602F0BFFA034618463837BD4680BDE4
:100CB00000001040000020400000F03F00003041E4
:100CC00080B590B000AF78600B467B8013467B7098
:100CD0004FF000024FF00003C7E90E237868FFF7DA
:100CE000DFFC0346184601F089FF02460B46C7E9C0
:100CF0000C237B78002B17D14FF00002394BC7E94A
:100D000002237B88184601F079FFD7E9022302F01D
:100D100019F902460B46D7E90C0101F0E9FF02463A
:100D20000B46C7E90E234EE07B780F2B13D17B884F
:100D3000184601F063FF4FF000022B4B01F0D8FF83
:100D400002460B46D7E90C0102F0FCF802460B46BE
:100D5000C7E90E2337E04FF000024FF08443C7E9A4
:100D60000A234FF00002214BC7E908237B780122B8
:100D700002FA03F3184601F051FF02460B46C7E999
:100D800006237B88184601F039FFD7E9082301F0D4
:100D9000F9FD02460B46D7E9060101F0A9FF02461C
:100DA0000B46C7E90423D7E90A23D7E9040102F077
:100DB000C9F802460B46D7E90C0101F099FF02463B
:100DC0000B46C7E90E23D7E90E0101F019F80246D8
:100DD0000B461046194602F025FA034618464037DE
:100DE000BD4680BD0000F041000020400000F04002
:100DF00080B584B000AF786039600023FB730FE0EA
:100E0000FB7B1A464FF6FF717868FFF759FF0246E1
:100E10003B68934201D2FB7B06E0FB7B0133FB7313
:100E2000FB7B0F2BECD9FF2318461037BD4680BD46
:100E300080B594B000AFF860B9601346FB714FF015
:100E400000024FF00003C7E91223F868FFF728FCFF
:100E50000346184601F0D2FE02460B46C7E91023AE
:100E6000FB79002B18D14FF000023E4BC7E9042359
:100E7000B86801F0C3FED7E9042301F039FF024648
:100E80000B4610461946D7E9102302F05BF80246DC
:100E90000B46C7E9122354E0FB790F2B12D1B86837
:100EA00001F0ACFE4FF000022F4B01F021FF024693
:100EB0000B46D7E9100102F045F802460B46C7E998
:100EC00012233EE04FF000024FF08443C7E90E23A7
:100ED0004FF00002254BC7E90C23FB79012202FAEF
:100EE00003F3184601F09AFE02460B46C7E90A23AF
:100EF000B86801F083FE02460B46D7E90E0101F007
:100F0000F7FE02460B46C7E90823D7E90A23D7E9CB
:100F1000100101F0EDFE02460B46C7E90623D7E9B2
:100F20000623D7E9080102F00DF802460B461046E9
:100F30001946D7E90C2301F023FD02460B46C7E909
:100F40001223D7E9120100F05BFF02460B46104660
:100F5000194602F067F903469BB218465037BD4662
:100F600080BD00BF0000F041000020400000F040C4
:100F700080B584B000AFF860B9607A603B60B96852
:100F8000F868FFF735FF03461A463B681A703B685E
:100F90001B781A46B968F868FFF74AFF03461A46F5
:100FA0007B681A8000BF1037BD4680BDF0B595B094
:100FB00000AF78600B46FB701346BB707868FFF794
:100FC00019FB0346184601F019FE02460B46C7E915
:100FD00012234FF00002654BD7E9120101F0B2FF76
:100FE00002460B46C7E91023786800F077F90346FC
:100FF000002B03D14FF000025D4B02E04FF00002E6
:101000005C4BC7E90E237868FFF782FB0346002B91
:1010100004D04FF000024FF0804302E04FF0000296
:10102000554BC7E90C23D7E90C23D7E90E0101F092
:101030005FFE02460B46C7E90A23BB78002B31D17D
:10104000FB78184601F0DAFDD7E90C2301F050FED9
:1010500002460B4614461D464FF00002454BD7E9A9
:101060000E0101F06FFF02460B462046294601F0B3
:101070003FFE02460B461046194600F0C1FEC7E986
:101080000201D7E90A23D7E9020101F05BFF02461A
:101090000B4610461946D7E9102301F029FE0246F7
:1010A0000B465DE0FB78184601F0A8FD4FF000020A
:1010B000324B01F067FC02460B46D7E90C0101F008
:1010C00017FE02460B46C7E90823BB78591E4FF0AE
:1010D00001024FF00003A1F12006C1F1200003FA44
:1010E00001F502FA06F6354322FA00F0054302FA4A
:1010F00001F42046294601F0C5FD02460B46C7E92A
:101100000623D7E90623D7E9080101F0F1FD0246DD
:101110000B4614461D464FF00002164BD7E90E0150
:1011200001F010FF02460B462046294601F0E0FD83
:1011300002460B461046194600F062FEC7E904015C
:10114000D7E90A23D7E9040101F0FCFE02460B4669
:1011500010461946D7E9102301F0CAFD02460B4696
:10116000104619465437BD46F0BD00BF000020416F
:1011700000001040000020400000F03F00007040E0
:10118000B0B584B000AF786039600023FB7318E01D
:10119000FB7B1A46FF217868FFF708FF04460D46DF
:1011A000386801F02BFD02460B462046294602F026
:1011B0002FF80346002B01D0FB7B06E0FB7B0133BD
:1011C000FB73FB7B0F2BE3D9FF2318461037BD467B
:1011D000B0BD000000000000B0B58CB000AFF860FA
:1011E0000B467A60FB72FB7A1A46FF21F868FFF71C
:1011F000DDFE02460B461046194602F013F8034680
:10120000FB62FB7A002B0FD0FB7A013BDBB21A4664
:10121000FF21F868FFF7CAFE02460B461046194642
:1012200002F000F8034600E00023BB62FA6ABB6AE2
:10123000D31A7B627A68BB6AD31A3B62386A01F0C0
:10124000DDFC04460D46786A01F0D8FC02460B46E8
:101250002046294601F076FE02460B46C7E90623E2
:10126000D7E906234FF000001B4901F089FB024635
:101270000B46104619464FF000024FF0000301F0F4
:1012800037FD02460B4614461D4611A3D3E9002341
:10129000D7E9060101F02CFD02460B4620462946FF
:1012A00001F070FB02460B46C7E90423D7E90401AD
:1012B00000F0A6FD02460B461046194601F0B2FFAB
:1012C0000346DBB218463037BD46B0BDAFF30080F1
:1012D0000000000000E06F400000F03F80B584B0E7
:1012E00000AF78600521786800F05DF90346FB7374
:1012F000FB7B1B0903F00103DBB218461037BD4628
:1013000080BD80B584B000AF78600B46FB703021A3
:10131000786800F048F90346FB73FB7B23F00C036D
:10132000FB73FB789B005BB203F00C035AB297F996
:101330000F3013435BB2FB73FB7B1A463021786896
:1013400000F04BF900BF1037BD4680BD80B582B0BC
:1013500000AF78607B6802220021184601F0B4FFDC
:101360007B68023382220021184601F0ADFF7B68C2
:10137000843382220021184601F0A6FF7B681A1DE3
:101380007B68C3F808217B6803F186027B68C3F899
:101390000C217B68002283F810217B68254AC3F862
:1013A00024217B68002283F821217B68002283F8B6
:1013B00020217B68012283F8182120211E4800F09B
:1013C0009BF90346DAB27B6883F8192140211A4859
:1013D00000F092F90346DAB27B6883F81B21802182
:1013E000154800F089F90346DAB27B6883F81A21C0
:1013F0001021114800F080F90346DAB27B6883F8C7
:101400001C214FF480610D4800F076F90346DAB2F2
:101410007B6883F81E217B68012283F81F217B688B
:1014200003F58A73184600F09DFB00BF0837BD46E0
:1014300080BD00BF8096980000080140000C01406C
:1014400080B485B000AFF8600B467A60FB72FB7A1F
:10145000052B06D1FB6893F81C311A467B681A608D
:1014600000E000BF00BF1437BD4680BC704780B5A8
:1014700084B000AF78600B46FB701346BB7007F179
:101480000C02FB7819467868FFF7DAFFFB68B3F1C6
:10149000FF3F05D0FB68BA781146184600F0D0F936
:1014A00000BF1037BD4680BD90B587B002AFF86071
:1014B0000B467A60FB720022FB689A70FB68FA7A2E
:1014C000DA70FB6803F58A70FB68991CFB6803F10E
:1014D00084027B6802330124009400F01BFCFB684B
:1014E00093F88520FB681A70FB6893F88420FB68EA
:1014F0005A7000BF1437BD4690BD90B587B002AF9B
:10150000F8600B467A60FB720122FB689A70FB68F8
:10151000FA7ADA70FB6803F58A70FB68991CFB683D
:1015200003F184027B6802330124009400F0F2FB93
:10153000FB6893F88520FB681A70FB6893F8842099
:10154000FB685A7000BF1437BD4690BD80B584B0AB
:1015500002AF78600B46FB7080227B689A707B68D4
:10156000FA78DA70786800F095F87B6803F58A708D
:101570007B68991C7B6803F184020123009302239A
:1015800000F0C8FB786800F092F87B6893F885203B
:101590007B681A707B6893F884207B685A7000BF60
:1015A0000837BD4680BD80B582B000AF78600B467D
:1015B000FB70786800F06EF8FB78012219467868B5
:1015C000FFF79BFF786800F072F87B68D3F80C3166
:1015D0001B7818460837BD4680BD80B582B000AF85
:1015E00078600B46FB701346BB707B68D3F80831FC
:1015F000BA781A70786800F04DF8FB780122194625
:101600007868FFF751FF786800F051F800BF08379D
:10161000BD4680BD80B584B000AFF8607A603B60A5
:101620000B46FB72F86800F035F8FB7A3A68194609
:10163000F868FFF762FFF86800F039F8FB68D3F844
:101640000C313A681946786801F030FE00BF103757
:10165000BD4680BD80B584B000AFF8607A603B6065
:101660000B46FB72FB68D3F808313A687968184674
:1016700001F01CFEF86800F00DF8FB7A3A68194694
:10168000F868FFF711FFF86800F011F800BF103795
:10169000BD4680BD80B582B000AF786000220521D4
:1016A0007868FFF7E4FE00BF0837BD4680BD80B50F
:1016B00082B000AF7860012205217868FFF7D7FE7D
:1016C00000BF0837BD4680BD80B582B000AF7860EE
:1016D00070217868FFF73AFF00BF0837BD4680BD2C
:1016E00080B582B000AF7860786800F079FB00BF09
:1016F0000837BD4680BD000080B485B000AF78607B
:101700000B467B800023FB730023BB6011E07A88CB
:10171000BB6842FA03F303F00103002B06D0FB7B06
:10172000002B01D0FF2332E0BB68FB73BB680133A1
:10173000BB60BB680F2BEADD7B68174A934201D17F
:10174000FB7B24E07B68154A934204D1FB7B43F08A
:101750001003DBB21BE07B68114A934204D1FB7B90
:1017600043F02003DBB212E07B680E4A934204D1BF
:10177000FB7B43F03003DBB209E07B680A4A93420B
:1017800004D1FB7B43F04003DBB200E0FF231846AB
:101790001437BD4680BC704700080140000C014072
:1017A00000100140001401400018014080B485B0D1
:1017B00000AF0346B9607A60FB73FB7B03F00F0355
:1017C000012202FA03F39AB27B681A80BB680022F6
:1017D0001A60FB7B03F0F003002B02D1BB68134AB5
:1017E0001A60FB7B03F0F003102B02D1BB68104A98
:1017F0001A60FB7B03F0F003202B02D1BB680D4A7B
:101800001A60FB7B03F0F003302B02D1BB680A4A5D
:101810001A60FB7B03F0F003402B02D1BB68074A40
:101820001A6000BF1437BD4680BC704700080140F5
:10183000000C01400010014000140140001801405C
:1018400080B584B000AF03460A46FB711346BB71F6
:101850000023FB604FF6FF737B8107F10A0207F15B
:101860000C01FB791846FFF7A1FFFB68002B05D0A0
:10187000FB687989BA79184600F0C8FC00BF1037B8
:10188000BD4680BD80B58AB000AF0346FB7107F14D
:10189000220207F12401FB791846FFF787FF7B6AD4
:1018A0002E4A934249D02D4A934253DC2C4A93420C
:1018B00036D02B4A93424DDC2A4A934223D0294A00
:1018C000934247DC284A934203D0284A93420DD0E2
:1018D00040E0274B9B69264A43F004039361244B65
:1018E0009B6903F00403FB61FB6933E0204B9B69B8
:1018F0001F4A43F0080393611D4B9B6903F00803E3
:10190000BB61BB6926E01A4B9B69194A43F010037F
:101910009361174B9B6903F010037B617B6919E0AE
:10192000134B9B69124A43F020039361104B9B6950
:1019300003F020033B613B690CE00D4B9B690C4AB3
:1019400043F0400393610A4B9B6903F04003FB6043
:10195000FB6800BF00BF2837BD4680BD00180140AE
:10196000001401400010014000080140000C01403B
:101970000010024080B58AB000AF7860734B9B695D
:10198000724A43F008039361704B9B6903F00803AC
:101990007B617B696D4B9B696C4A43F004039361E7
:1019A0006A4B9B6903F004033B613B697B681B79CD
:1019B000012B02D0022B16D02CE0654B654A9A65AC
:1019C000654B7B6200F08AFA03463B625F4B9B6982
:1019D0005E4A43F4805393615C4B9B6903F48053EC
:1019E000FB60FB6819E05A4B5C4AC3F8B02000F07A
:1019F00061FA03463B625A4B7B62544BDB69534AA4
:101A000043F48043D361514BDB6903F48043BB60F3
:101A1000BB6802E04FF0FF3393E07B687A6A1A609C
:101A20007B6A4FF482725A607B6A00229A607B6AFA
:101A30000022DA607B6A4FF400729A617B6A0022AE
:101A40005A627B685B7B002B03D07B6A80221A6220
:101A500002E07B6A00221A623A6A7B681B69B2FB69
:101A6000F3F3FB613B6A7A681269B3FBF2F101FBA5
:101A700002F29B1ABB61BB69002B02D0FB690133E8
:101A8000FB617B6A3822DA61FB69802B02DC7B6AAE
:101A90003022DA61FB69402B02DC7B6A2822DA61A2
:101AA000FB69202B02DC7B6A2022DA61FB69102BA8
:101AB00002DC7B6A1822DA61FB69082B02DC7B6A94
:101AC0001022DA61FB69042B02DC7B6A0822DA61EE
:101AD000FB69022B02DC7B6A0022DA617B681B7BDC
:101AE000032B27D801A252F823F000BFFD1A0008EB
:101AF0000B1B0008191B0008271B00087B6A00222B
:101B00001A617B6A00225A6117E07B6A00221A611F
:101B10007B6A01225A6110E07B6A00221A617B6AAB
:101B200001225A6109E07B6A02221A617B6A012262
:101B30005A6102E04FF0FF3303E0786A00F07EFB69
:101B4000034618462837BD4680BD00BF001002403E
:101B500044010020003001409C010020003800407A
:101B6000F401002080B58AB000AF78607868FFF794
:101B700001FF38623B6A002B01D03B6AC6E00123BB
:101B8000BB610323FB610023FB604FF6FF737B8186
:101B9000002387F827307B689B7907F10A0207F159
:101BA0000C011846FFF702FE7B689B791846FFF789
:101BB00069FEFB68002B0DD002237B617B893B61B2
:101BC000FB6807F110021146184600F09BF901234B
:101BD00087F827307B68DB7907F10A0207F10C01EF
:101BE0001846FFF7E3FD7B68DB791846FFF74AFEEE
:101BF000FB68002B0DD000237B617B893B61FB6878
:101C000007F110021146184600F07CF9012387F80D
:101C1000273097F8273083F00103DBB2002B02D086
:101C20004FF0FF3372E07B685B7907F10A0207F13E
:101C30000C011846FFF7BAFD7B685B791846FFF781
:101C400021FEFB68002B1CD002237B617B893B615A
:101C5000FB6807F110021146184600F053F97B6843
:101C60001B7A07F10A0207F10C011846FFF79EFDE7
:101C70007B681B7A1846FFF705FEFB68002B1BD01C
:101C800002E04FF0FF3341E001237B617B893B6140
:101C9000FB6807F110021146184600F033F97B6823
:101CA0001A7A7B685B7A002B0CBF01230023DBB21E
:101CB00019461046FFF7C4FD7B689B7A07F10A02BC
:101CC00007F10C011846FFF771FD7B689B7A1846F7
:101CD000FFF7D8FDFB68002B17D001237B617B89C0
:101CE0003B61FB6807F110021146184600F00AF943
:101CF0007B689A7A7B68DB7A002B0CBF0123002378
:101D0000DBB219461046FFF79BFD00231846283723
:101D1000BD4680BD80B588B002AFF860B9607A601A
:101D20003B60FB681A7AFB685B7A002B14BF0123C7
:101D30000023DBB219461046FFF782FDFB681868E6
:101D40003B689BB24FF47A7200927A68B96800F0EF
:101D50000AFB03467B6197F8203083F00103DBB276
:101D6000002B0CD0FB681A7AFB685B7A002B0CBF47
:101D700001230023DBB219461046FFF761FD7B69A2
:101D800018461837BD4680BD80B483B000AF786078
:101D9000044B1B68C01AFBD800BF0C37BD4680BC83
:101DA000704700BFAC02002080B582B000AF786001
:101DB000084B1B68084A12680849A1FB0212920CE2
:101DC000796801FB02F21046984700BF0837BD460C
:101DD00080BD00BFA8020020B002002083DE1B43AC
:101DE00080B582B000AF78607B684FF47A7202FBF6
:101DF00003F31846FFF7D8FF00BF0837BD4680BD84
:101E000038B5C1F30A54A4F2FF32132A0B468446B4
:101E10008E4605461DDC002A0CDB1D4810410140A2
:101E2000294313D04FF4002313417344002123EAC4
:101E3000000E09E0013201F0004E11BF0021002127
:101E40004EF07F5E4EF4401E73468C466046194647
:101E500038BD332A08DDB2F5806FF7D1024600F0B5
:101E600091FD84460B46F1E74FF0FF30A4F2134496
:101E7000E04010EA0C0FE9D00121C2F13302914099
:101E8000491928BF03F1010E21EA0001DCE700BF78
:101E9000FFFF0F0080B400AF00BFBD4680BC70479D
:101EA00080B400AF024B1B681846BD4680BC70472B
:101EB000B002002080B500AFFFF7F2FF0246054BED
:101EC0005B681B0A03F007030349CB5C22FA03F3A8
:101ED000184680BD00100240FC32000880B500AFFB
:101EE000FFF7DEFF0246054B5B68DB0A03F00703E2
:101EF0000349CB5C22FA03F3184680BD0010024070
:101F0000FC32000880B48BB000AF786039600023E9
:101F10007B6200233B6269E101227B6A02FA03F3E0
:101F2000FB613B681B68FA691340BB61BA69FB69D6
:101F30009A4240F058813B685B689A4A93425ED06F
:101F4000984A934275D8984A934258D0964A9342F9
:101F50006FD8964A934252D0944A934269D8944A91
:101F600093424CD0924A934263D8924A934246D0CD
:101F7000904A93425DD8122B2AD8122B59D801A22D
:101F800052F823F0FF1F0008D91F0008EB1F0008BC
:101F90002D200008332000083320000833200008DB
:101FA00033200008332000083320000833200008C5
:101FB00033200008332000083320000833200008B5
:101FC0003320000833200008E11F0008F51F000837
:101FD000794A934213D02CE03B68DB683B6229E0EE
:101FE0003B68DB6804333B6224E03B68DB68083312
:101FF0003B621FE03B68DB680C333B621AE03B68E6
:102000009B68002B02D104233B6213E03B689B6872
:10201000012B05D108233B627B68FA691A6109E04C
:1020200008233B627B68FA695A6103E000233B6244
:1020300000E000BFBB69FF2B01D87B6801E07B6833
:1020400004337B61BB69FF2B02D87B6A9B0002E0F3
:102050007B6A083B9B003B617B691A680F213B69E7
:1020600001FA03F3DB431A40396A3B6901FA03F3CF
:102070001A437B691A603B685B6803F08053002B4E
:1020800000F0B1804D4B9B694C4A43F001039361D2
:102090004A4B9B6903F00103BB60BB68484A7B6AFB
:1020A0009B08023352F82330FB607B6A03F0030382
:1020B0009B000F2202FA03F3DB43FA681340FB6034
:1020C0007B68404A934213D07B683F4A93420DD0CD
:1020D0007B683E4A934207D07B683D4A934201D1D8
:1020E000032306E0042304E0022302E0012300E0CE
:1020F00000237A6A02F0030292009340FA681343C5
:10210000FB602F497B6A9B080233FA6841F8232061
:102110003B685B6803F48033002B06D02D4B1A68B4
:102120002C49BB6913430B6006E02A4B1A68BB6954
:10213000DB43284913400B603B685B6803F40033C2
:10214000002B06D0234B5A682249BB6913434B60CE
:1021500006E0204B5A68BB69DB431E4913404B60C5
:102160003B685B6803F48013002B06D0194B9A6818
:102170001849BB6913438B6006E0164B9A68BB692C
:10218000DB43144913408B603B685B6803F4001326
:10219000002B21D00F4BDA680E49BB691343CB608B
:1021A00021E000BF000032100000311000002210BA
:1021B0000000211000001210000011100010024059
:1021C0000000014000080140000C014000100140E7
:1021D00000140140000401400B4BDA68BB69DB438B
:1021E00009491340CB607B6A01337B623B681A6804
:1021F0007B6A22FA03F3002B7FF48EAE00BF00BF90
:102200002C37BD4680BC70470004014080B483B0C9
:1022100000AF78600B467B8013467B707B78002B89
:1022200003D07A887B681A6103E07B881A047B6894
:102230001A6100BF0C37BD4680BC704780B582B0C4
:1022400000AF78607B68002B01D101237EE07B68C2
:102250005B6A002B08D17B685B68B3F5827F09D08D
:102260007B680022DA6105E07B6800221A617B68E6
:1022700000225A617B6893F85130DBB2002B06D103
:102280007B68002283F85020786800F063F87B6850
:10229000022283F851207B681B681A687B681B68E0
:1022A00022F040021A607B685B6803F482727B68EC
:1022B0009B6803F404431A437B68DB6803F4006300
:1022C0001A437B681B6903F002031A437B685B694E
:1022D00003F001031A437B689B6903F400731A43FC
:1022E0007B68DB6903F038031A437B681B6A03F0E1
:1022F000800342EA03017B689B6A03F400527B6817
:102300001B680A431A607B689B691A0C7B681B6810
:1023100002F004025A607B689B6AB3F5005F05D146
:102320007B68DA6A7B681B6892B21A617B681B68FB
:10233000DA697B681B6822F40062DA617B6800223C
:102340005A657B68012283F851200023184608371C
:10235000BD4680BD80B483B000AF786000BF0C374D
:10236000BD4680BC704780B58EB002AFF860B960E2
:102370007A607B8000237B610123FB62002387F866
:102380002B30FB6893F85030012B01D102230FE270
:10239000FB68012283F8502000F0E4FA7862FB68C1
:1023A00093F8513087F82330FB685B68FB617B88CA
:1023B0007B8397F82330012B0FD0FB69B3F5827F25
:1023C00007D1FB689B68002B03D197F82330042BBF
:1023D00003D0022387F82B30E0E1BB68002B05D047
:1023E0007B68002B02D07B88002B03D1012387F868
:1023F0002B30D3E1FB6893F85130DBB2042B03D0D0
:10240000FB68052283F85120FB6800225A65FB68AF
:102410007A689A63FB687A88DA87FB687A889A8791
:10242000FB68BA681A63FB687A88DA86FB687A8880
:102430009A86FB6800221A64FB6800225A64FB68D3
:102440009B6AB3F5005F0FD1FB681B681A68FB68D5
:102450001B6822F400521A60FB681B681A68FB684C
:102460001B6842F400521A60FB681B681B6803F08B
:102470004003402B07D0FB681B681A68FB681B6889
:1024800042F040021A60FB68DB68B3F5006F40F071
:102490008B80FB685B68002B02D07B8B012B78D193
:1024A000FB681B6B1A88FB681B68DA60FB681B6B98
:1024B0009A1CFB681A63FB68DB8E9BB2013B9AB2E5
:1024C000FB68DA8665E0FB681B689B6803F0020323
:1024D000022B2DD1FB68DB8E9BB2002B28D0FB6A30
:1024E000012B25D1FB681B6B1A88FB681B68DA601F
:1024F000FB681B6B9A1CFB681A63FB68DB8E9BB244
:10250000013B9AB2FB68DA860023FB62FB68DB8E34
:102510009BB2002B0CD1FB689B6AB3F5005F07D11F
:10252000FB681B681A68FB681B6842F480521A60DB
:10253000FB681B689B6803F00103012B19D1FB6842
:10254000DB8F9BB2002B14D0FB681B68DA68FB683A
:102550009B6B92B21A80FB689B6B9A1CFB689A6318
:10256000FB68DB8F9BB2013B9AB2FB68DA870123E1
:10257000FB6200F0F7F902467B6AD31ABA6B9A4203
:1025800007D8BB6BB3F1FF3F03D0032387F82B3091
:1025900004E1FB68DB8E9BB2002B94D1FB68DB8FE0
:1025A0009BB2002B8FD18EE0FB685B68002B02D0C2
:1025B0007B8B012B7DD1FB681A6BFB681B680C338E
:1025C00012781A70FB681B6B5A1CFB681A63FB6855
:1025D000DB8E9BB2013B9AB2FB68DA8669E0FB684E
:1025E0001B689B6803F00203022B2ED1FB68DB8E75
:1025F0009BB2002B29D0FB6A012B26D1FB681A6BFA
:10260000FB681B680C3312781A70FB681B6B5A1C32
:10261000FB681A63FB68DB8E9BB2013B9AB2FB68D6
:10262000DA860023FB62FB68DB8E9BB2002B0CD1A9
:10263000FB689B6AB3F5005F07D1FB681B681A68EB
:10264000FB681B6842F480521A60FB681B689B6839
:1026500003F00103012B19D1FB68DB8F9BB2002B28
:1026600014D0FB681B68DA68FB689B6BD2B21A70E7
:10267000FB689B6B5A1CFB689A63FB68DB8F9BB201
:10268000013B9AB2FB68DA870123FB6200F06AF92A
:1026900002467B6AD31ABA6B9A4203D8BB6BB3F17A
:1026A000FF3F02D1BB6B002B03D1032387F82B30F4
:1026B00074E0FB68DB8E9BB2002B90D1FB68DB8F54
:1026C0009BB2002B8BD1FB689B6AB3F5005F19D1DD
:1026D0007B6A0093BB6B01220121F86800F06CF863
:1026E0000346002B09D0FB685B6D43F00202FB68D8
:1026F0005A65032387F82B3050E0FB681B68DB68C2
:102700007B617B69FB681B689B6803F01003102BDF
:1027100024D1F86800F0F6F80346012B19D1FB68C4
:102720005B6D43F00202FB685A65FB681B681A6820
:10273000FB681B6822F400521A60FB681B681A6869
:10274000FB681B6842F400521A60012387F82B30A3
:1027500004E0FB681B684FF6EF729A607A6AB96B07
:10276000F86800F0B1F80346002B06D0012387F883
:102770002B30FB6820225A6510E0FB689B68002B19
:102780000BD100233B61FB681B68DB683B61FB6886
:102790001B689B683B613B6900E000BFFB6801224E
:1027A00083F85120FB68002283F8502097F82B30E3
:1027B00018463037BD4680BD80B588B000AFF860A0
:1027C000B9603B601346FB7100F0CCF80246BB6A6F
:1027D0009B1A3A681344FB6100F0C4F8B861394BA6
:1027E0001B685B011B0DFA6902FB03F37B6154E07C
:1027F0003B68B3F1FF3F50D000F0B4F80246BB692C
:10280000D31AFA699A4202D9FB69002B3DD1FB68C1
:102810001B685A68FB681B6822F0E0025A60FB687C
:102820005B68B3F5827F11D1FB689B68B3F5004FFD
:1028300004D0FB689B68B3F5806F07D1FB681B6809
:102840001A68FB681B6822F040021A60FB689B6AEA
:10285000B3F5005F0FD1FB681B681A68FB681B6843
:1028600022F400521A60FB681B681A68FB681B6838
:1028700042F400521A60FB68012283F85120FB6881
:10288000002283F85020032317E07B69002B01D13D
:102890000023FB617B69013B7B61FB681B689A68D5
:1028A000BB681340BA689A420CBF01230023DBB215
:1028B0001A46FB799A429BD1002318462037BD4621
:1028C00080BD00BFB002002080B586B002AFF860C6
:1028D000B9607A607B680093BB6800228021F86849
:1028E000FFF76AFF0346002B07D0FB685B6D43F0E0
:1028F0002002FB685A65032300E0002318461037C6
:10290000BD4680BD80B483B000AF78600123184617
:102910000C37BD4680BC70470C480D490D4A00235A
:1029200002E0D458C4500433C4188C42F9D30A4A84
:102930000A4C002301E013600432A242FBD3FFF7EC
:10294000A9FA00F08FFCFDF7B9FC7047A80200203F
:10295000B40200200833000800000020A802002074
:10296000FEE7000080B400AF024B1B681846BD466E
:1029700080BC7047A402002081F0004102E000BF4B
:1029800083F0004330B54FEA41044FEA430594EA2F
:10299000050F08BF90EA020F1FBF54EA000C55EA6A
:1029A000020C7FEA645C7FEA655C00F0E2804FEA3B
:1029B0005454D4EB5555B8BF6D420CDD2C4480EA1D
:1029C000020281EA030382EA000083EA010180EA4D
:1029D000020281EA0303362D88BF30BD11F0004F9B
:1029E0004FEA01314FF4801C4CEA113102D04042D1
:1029F00061EB410113F0004F4FEA03334CEA13330C
:102A000002D0524263EB430394EA050F00F0A78023
:102A1000A4F10104D5F1200E0DDB02FA0EFC22FA1E
:102A200005F2801841F1000103FA0EF2801843FA12
:102A300005F359410EE0A5F120050EF1200E012A03
:102A400003FA0EFC28BF4CF0020C43FA05F3C01841
:102A500051EBE37101F0004507D54FF0000EDCF1BA
:102A6000000C7EEB00006EEB0101B1F5801F1BD363
:102A7000B1F5001F0CD349085FEA30004FEA3C0C67
:102A800004F101044FEA445212F5800F80F09A805D
:102A9000BCF1004F08BF5FEA500C50F1000041EB61
:102AA000045141EA050130BD5FEA4C0C404141EB65
:102AB0000101013C28BFB1F5801FE9D291F0000F60
:102AC00004BF01460020B1FA81F308BF2033A3F10F
:102AD0000B03B3F120020CDA0C3208DD02F1140C06
:102AE000C2F10C0201FA0CF021FA02F10CE002F141
:102AF0001402D8BFC2F1200C01FA02F120FA0CFC3A
:102B0000DCBF41EA0C019040E41AA2BF01EB045182
:102B1000294330BD6FEA04041F3C1CDA0C340EDC80
:102B200004F11404C4F1200220FA04F001FA02F3C3
:102B300040EA030021FA04F345EA030130BDC4F181
:102B40000C04C4F1200220FA02F001FA04F340EA76
:102B50000300294630BD21FA04F0294630BD94F027
:102B6000000F83F4801306BF81F480110134013D0E
:102B70004EE77FEA645C18BF7FEA655C29D094EA7F
:102B8000050F08BF90EA020F05D054EA000C04BFFD
:102B90001946104630BD91EA030F1EBF00210020E8
:102BA00030BD5FEA545C05D14000494128BF41F087
:102BB000004130BD14F580043CBF01F5801130BDEB
:102BC00001F0004545F0FE4141F470014FF0000076
:102BD00030BD7FEA645C1ABF194610467FEA655C27
:102BE0001CBF0B46024650EA013406BF52EA0335C9
:102BF00091EA030F41F4002130BD00BF90F0000FB7
:102C000004BF0021704730B54FF4806404F13204F2
:102C10004FF000054FF0000150E700BF90F0000FAB
:102C200004BF0021704730B54FF4806404F13204D2
:102C300010F0004548BF40424FF000013EE700BFA2
:102C400042004FEAE2014FEA31014FEA02701FBF32
:102C500012F07F4393F07F4F81F06051704732F064
:102C60007F4208BF704793F07F4F04BF41F40021BB
:102C7000704730B54FF4607401F0004521F0004119
:102C80001CE700BF50EA010208BF704730B54FF0A3
:102C900000050AE050EA010208BF704730B511F0A4
:102CA000004502D5404261EB41014FF4806404F1DC
:102CB00032045FEA915C3FF4D8AE4FF003025FEA62
:102CC000DC0C18BF03325FEADC0C18BF033202EBE6
:102CD000DC02C2F1200300FA03FC20FA02F001FA40
:102CE00003FE40EA0E0021FA02F11444BDE600BFE3
:102CF00070B54FF0FF0C4CF4E06C1CEA11541DBF92
:102D00001CEA135594EA0C0F95EA0C0F00F0DEF85C
:102D10002C4481EA030621EA4C5123EA4C5350EA41
:102D2000013518BF52EA033541F4801143F4801392
:102D300038D0A0FB02CE4FF00005E1FB02E506F023
:102D40000042E0FB03E54FF00006E1FB03569CF078
:102D5000000F18BF4EF0010EA4F1FF04B6F5007F7E
:102D600064F5407404D25FEA4E0E6D4146EB0606F0
:102D700042EAC62141EA55514FEAC52040EA5E5079
:102D80004FEACE2EB4F1FD0C88BFBCF5E06F1ED823
:102D9000BEF1004F08BF5FEA500E50F1000041EB5A
:102DA000045170BD06F0004646EA010140EA020007
:102DB00081EA0301B4EB5C04C2BFD4EB0C0541EA29
:102DC000045170BD41F480114FF0000E013C00F33E
:102DD000AB8014F1360FDEBF002001F0004170BD62
:102DE000C4F10004203C35DA0C341BDC04F114047B
:102DF000C4F1200500FA05F320FA04F001FA05F207
:102E000040EA020001F0004221F0004110EBD370D3
:102E100021FA04F642EB06015EEA430E08BF20EAFF
:102E2000D37070BDC4F10C04C4F1200500FA04F3A2
:102E300020FA05F001FA04F240EA020001F0004134
:102E400010EBD37041F100015EEA430E08BF20EAA7
:102E5000D37070BDC4F1200500FA05F24EEA020EEF
:102E600020FA04F301FA05F243EA020321FA04F01E
:102E700001F0004121FA04F220EA020000EBD370D5
:102E80005EEA430E08BF20EAD37070BD94F0000FD5
:102E90000FD101F00046400041EB010111F4801F09
:102EA00008BF013CF7D041EA060195F0000F18BFBA
:102EB000704703F00046520043EB030313F4801FF6
:102EC00008BF013DF7D043EA0603704794EA0C0FB0
:102ED0000CEA135518BF95EA0C0F0CD050EA4106C6
:102EE00018BF52EA4306D1D181EA030101F0004143
:102EF0004FF0000070BD50EA410606BF104619466B
:102F000052EA430619D094EA0C0F02D150EA013676
:102F100013D195EA0C0F05D152EA03361CBF1046B7
:102F200019460AD181EA030101F0004141F0FE4156
:102F300041F470014FF0000070BD41F0FE4141F4DA
:102F4000780170BD70B54FF0FF0C4CF4E06C1CEADA
:102F500011541DBF1CEA135594EA0C0F95EA0C0F8F
:102F600000F0A7F8A4EB050481EA030E52EA03354A
:102F70004FEA013100F088804FEA03334FF080556B
:102F800045EA131343EA12634FEA022245EA111598
:102F900045EA10654FEA00260EF000419D4208BF49
:102FA000964244F1FD0404F5407402D25B084FEAF6
:102FB0003202B61A65EB03055B084FEA32024FF4A2
:102FC00080104FF4002CB6EB020E75EB030E22BFFF
:102FD000B61A754640EA0C005B084FEA3202B6EBBF
:102FE000020E75EB030E22BFB61A754640EA5C006E
:102FF0005B084FEA3202B6EB020E75EB030E22BFFE
:10300000B61A754640EA9C005B084FEA3202B6EBFE
:10301000020E75EB030E22BFB61A754640EADC00BD
:1030200055EA060E18D04FEA051545EA16754FEA1F
:1030300006164FEAC30343EA52734FEAC2025FEA3D
:103040001C1CC0D111F4801F0BD141EA00014FF0CC
:1030500000004FF0004CB6E711F4801F04BF01439D
:103060000020B4F1FD0C88BFBCF5E06F3FF6AFAEB9
:10307000B5EB030C04BFB6EB020C5FEA500C50F149
:10308000000041EB045170BD0EF0004E4EEA1131CC
:1030900014EB5C04C2BFD4EB0C0541EA045170BDD3
:1030A00041F480114FF0000E013C90E645EA060E17
:1030B0008DE60CEA135594EA0C0F08BF95EA0C0F45
:1030C0003FF43BAF94EA0C0F0AD150EA01347FF48D
:1030D00034AF95EA0C0F7FF425AF104619462CE764
:1030E00095EA0C0F06D152EA03353FF4FDAE1046C7
:1030F000194622E750EA410618BF52EA43067FF418
:10310000C5AE50EA41047FF40DAF52EA43057FF4A7
:10311000EBAE12E74FF0FF3C06E000BF4FF0010CB2
:1031200002E000BF4FF0010C4DF804CD4FEA410C16
:103130007FEA6C5C4FEA430C18BF7FEA6C5C1BD0E3
:1031400001B050EA410C0CBF52EA430C91EA030F64
:1031500002BF90EA020F0020704710F1000F91EAC1
:10316000030F58BF994208BF90422CBFD8176FEA8F
:10317000E37040F0010070474FEA410C7FEA6C5C5D
:1031800002D150EA013C07D14FEA430C7FEA6C5C64
:10319000D6D152EA033CD3D05DF8040B704700BF90
:1031A0008446104662468C461946634600E000BFDE
:1031B00001B5FFF7B7FF002848BF10F1000F01BDB0
:1031C0004DF808EDFFF7F4FF0CBF012000205DF87B
:1031D00008FB00BF4DF808EDFFF7EAFF34BF012000
:1031E00000205DF808FB00BF4DF808EDFFF7E0FF99
:1031F00094BF012000205DF808FB00BF4DF808EDEA
:10320000FFF7CEFF94BF012000205DF808FB00BF50
:103210004DF808EDFFF7C4FF34BF012000205DF832
:1032200008FB00BF4A0011D212F5001211D20DD5D1
:103230006FF47873B3EB62520ED44FEAC12343F0BC
:10324000004343EA505323FA02F070474FF0000066
:10325000704750EA013002D14FF0FF3070474FF015
:103260000000704770B500260C4D0D4C641BA41077
:10327000A64209D100F030F800260A4D0A4C641B22
:10328000A410A64205D170BD55F8043B98470136FD
:10329000EEE755F8043B98470136F2E7143300088F
:1032A0001433000814330008183300080A4491420C
:1032B00000F1FF3300D1704710B511F8014B914276
:1032C00003F8014FF9D110BD03460244934200D1E7
:1032D000704703F8011BF9E7F8B500BFF8BC08BC5C
:1032E0009E467047F8B500BFF8BC08BC9E467047C4
:1032F0006162636400000000000000000000000044
:083300000102030400000000BB
:0C330800891D0008030000000024F400F0
:043314002502000886
:0433180001020008A6
:0400000508002919AD
:00000001FF
