:020000040800F2
:1000000000500020D92200082123000821230008E5
:1000100021230008212300082123000800000000FC
:100020000000000000000000000000002123000884
:1000300021230008000000002123000821230008DC
:100040002123000821230008212300082123000880
:100050002123000821230008212300082123000870
:100060002123000821230008212300082123000860
:100070002123000821230008212300082123000850
:100080002123000821230008212300082123000840
:100090002123000821230008212300082123000830
:1000A0002123000821230008212300082123000820
:1000B0002123000821230008212300082123000810
:1000C0002123000821230008212300082123000800
:1000D00021230008212300082123000821230008F0
:1000E000212300082123000821230008000000002C
:1000F0000000000000000000000000000000000000
:1001000000000000000000005FF808F1000000009F
:1001100000000000000000000000000000000000DF
:1001200000000000000000000000000000000000CF
:1001300000000000000000000000000000000000BF
:1001400000000000000000000000000000000000AF
:10015000000000000000000000000000000000009F
:10016000000000000000000000000000000000008F
:10017000000000000000000000000000000000007F
:10018000000000000000000000000000000000006F
:10019000000000000000000000000000000000005F
:1001A000000000000000000000000000000000004F
:1001B000000000000000000000000000000000003F
:1001C000000000000000000000000000000000002F
:1001D000000000000000000000000000000000001F
:1001E000000000000000000000000000000000000F
:1001F00000000000000000000000000000000000FF
:1002000010B5054C237833B9044B13B10448AFF350
:1002100000800123237010BD0000002000000000BA
:100220000832000808B5034B1BB103490348AFF37C
:10023000008008BD00000000040000200832000813
:1002400080B483B000AF0346FB80FB885BBA9BB2EF
:1002500018460C37BD4680BC7047000080B588B09A
:1002600000AF78607B685A4A934202D84FF0FF3360
:10027000A9E07B68574A934202D94FF0FF33A2E0CE
:100280007B68554A934224D87B68A3F56A33A3F56B
:10029000C073524AA2FB03235B0BFB617A684F4B8E
:1002A000A3FB02135B0B42F2107101FB03F3D31AA1
:1002B000184602F0F7F803464949184602F0FEF9DD
:1002C0000346184602F096FA0346BB6100237B61A1
:1002D00023E07B68A3F5EA23A3F540733F4AA2FB22
:1002E00003239B0BFB617A683C4BA3FB02139B0B24
:1002F00044F6206101FB03F3D31A184602F0D2F84A
:1003000003463849184602F0D9F90346184602F068
:1003100071FA0346BB6101237B6100233B74FB69D7
:1003200003F01F03DAB23B7C62F304033B747B6986
:1003300003F00103DAB23B7C62F345133B743B7C70
:1003400043F040033B74F523FB73274B1B7A0021DA
:10035000184600F0A9FB07F10F01012301222248F2
:1003600000F00CFE07F11001012301221E4800F0ED
:100370003CFE1D4B1B7A0121184600F095FBBB6922
:100380009BB21846FFF75CFF0346BB81F623FB7365
:10039000154B1B7A0021184600F086FB07F10F0170
:1003A00001230122104800F0E9FD07F10C010123AF
:1003B00002220D4800F019FE0B4B1B7A0121184652
:1003C00000F072FB002318462037BD4680BD00BFF9
:1003D0007FA9030000A60E00FF5207005917B7D1EE
:1003E0000000203E0000A03E1C00002080B500AFB1
:1003F0001E4B1F4A1A611D4B00225A731B4B0022D1
:100400001A731A4B01221A7120211A4800F0A8FA17
:100410000346DAB2154B5A714021164800F0A0FA93
:100420000346DAB2114BDA718021124800F098FAD3
:100430000346DAB20D4B9A7110210E4800F090FA83
:100440000346DAB2094B1A724FF480610A4800F091
:1004500087FA0346DAB2054B9A72044B0122DA722C
:10046000024800F0B3FC00BF80BD00BF1C000020AC
:100470008096980000080140000C014080B5C2B091
:1004800000AF882387F80731022387F80631634BD2
:100490001B7A0021184600F007FB07F20711012321
:1004A00001225E4800F06AFD07F5837101230122F5
:1004B0005A4800F063FD594B1B7A0121184600F0A1
:1004C000F3FA882387F80731002387F80631534B66
:1004D0001B7A0021184600F0E7FA07F20711012302
:1004E00001224E4800F04AFD07F5837101230122E5
:1004F0004A4800F043FD494B1B7A0121184600F0A1
:10050000D3FA872387F80731042387F80631434B52
:100510001B7A0021184600F0C7FA07F207110123E1
:1005200001223E4800F02AFD07F5837101230122D4
:100530003A4800F023FD394B1B7A0121184600F0A0
:10054000B3FA002387F80631032387F8073119E04F
:10055000324B1B7A0021184600F0A6FA07F2071169
:10056000012301222D4800F009FD07F583710123C5
:1005700001222A4800F039FD284B1B7A0121184638
:1005800000F092FA97F8063103F00203002BDFD057
:10059000002387F806314B2387F807311F4B1B7A5E
:1005A0000021184600F080FA07F20711012301220A
:1005B0001A4800F0E3FC07F5837101230122174874
:1005C00000F013FD154B1B7A0121184600F06CFA60
:1005D0003B1DFF220021184602F064F97F2387F8B3
:1005E00007310E4B1B7A0021184600F05DFA07F226
:1005F000071101230122094800F0C0FC97F80631D9
:100600001A46391D0123054800F0EFFC034B1B7A05
:100610000121184600F048FA33E700BF1C00002013
:1006200080B592B000AF00237B64882387F8433005
:10063000012387F84230684B1B7A0021184600F0EE
:1006400033FA07F1430101230122634800F096FCCD
:1006500007F14201012301225F4800F08FFC5E4B4D
:100660001B7A0121184600F01FFA882387F84330CF
:10067000012387F84230584B1B7A0021184600F0BE
:1006800013FA07F1430101230122534800F076FCDD
:1006900007F14201012301224F4800F06FFC4E4B4D
:1006A0001B7A0121184600F0FFF97B6C5A1C7A6412
:1006B00038461A46494902F0FDF8BE2387F8433010
:1006C0003B46184602F016F90346DBB287F8423083
:1006D000414B1B7A0021184600F0E6F907F143016F
:1006E000012301223C4800F049FC07F142010123AB
:1006F0000122394800F042FC374B1B7A0121184691
:1007000000F0D2F9FF2387F84330334B1B7A0021E6
:10071000184600F0C9F907F14301012301222E48D0
:1007200000F02CFC97F842301A46394601232A483B
:1007300000F024FC284B1B7A0121184600F0B4F984
:10074000872387F84330082387F84230224B1B7AEF
:100750000021184600F0A8F907F143010123012206
:100760001D4800F00BFC07F14201012301221A4849
:1007700000F004FC184B1B7A0121184600F094F994
:10078000002387F84230032387F8433019E0124BE7
:100790001B7A0021184600F087F907F14301012375
:1007A00001220D4800F0EAFB07F14201012301227A
:1007B000094800F01AFC084B1B7A0121184600F08A
:1007C00073F997F8423003F00403002BDFD04FF4A5
:1007D0007A7000F09BFC28E71C000020C431000860
:1007E00080B582B000AF504B9B7A0121184600F0D3
:1007F0005BF9052000F08AFC4B4B9B7A00211846E0
:1008000000F052F9142000F081FC0023FB71464BEC
:100810001B7A0021184600F047F9F91D0123012237
:10082000414800F0ABFBB91D012301223E4800F016
:10083000DCFB3D4B1B7A0121184600F035F9012302
:10084000FB71394B1B7A0021184600F02DF9F91D78
:1008500001230122344800F091FBB91D012301223C
:10086000314800F0C2FB304B1B7A0121184600F0E2
:100870001BF9F123FB712323BB712B4B1B7A002146
:10088000184600F011F9F91D01230122264800F055
:1008900075FBB91D01230122234800F06FFB224B99
:1008A0001B7A0121184600F0FFF8B223FB710023E8
:1008B000BB711D4B1B7A0021184600F0F5F8F91D9D
:1008C00001230122184800F059FBB91D0123012220
:1008D000154800F053FB144B1B7A0121184600F019
:1008E000E3F88523FB710623BB710F4B1B7A0021B4
:1008F000184600F0D9F8F91D012301220A4800F03A
:100900003DFBB91D01230122074800F037FB064BD0
:100910001B7A0121184600F0C7F80448FFF79EFC37
:1009200000BF0837BD4680BD1C000020A03E0D0062
:1009300080B582B000AF00F0F9FBFFF757FDFFF77D
:100940004FFF0023FB71FB79002B02D0FFF768FEFD
:1009500001E0FFF793FD00BF0837BD4680BD0000F2
:1009600080B485B000AF78600B467B800023FB73BA
:100970000023BB6011E07A88BB6842FA03F303F0FE
:100980000103002B06D0FB7B002B01D0FF2332E0BC
:10099000BB68FB73BB680133BB60BB680F2BEADD30
:1009A0007B68174A934201D1FB7B24E07B68154AA0
:1009B000934204D1FB7B43F01003DBB21BE07B6866
:1009C000114A934204D1FB7B43F02003DBB212E0D7
:1009D0007B680E4A934204D1FB7B43F03003DBB2C9
:1009E00009E07B680A4A934204D1FB7B43F0400351
:1009F000DBB200E0FF2318461437BD4680BC7047C9
:100A000000080140000C01400010014000140140AA
:100A10000018014080B485B000AF0346B9607A6029
:100A2000FB73FB7B03F00F03012202FA03F39AB27C
:100A30007B681A80BB6800221A60FB7B03F0F0031E
:100A4000002B02D1BB68134A1A60FB7B03F0F00352
:100A5000102B02D1BB68104A1A60FB7B03F0F00335
:100A6000202B02D1BB680D4A1A60FB7B03F0F00318
:100A7000302B02D1BB680A4A1A60FB7B03F0F003FB
:100A8000402B02D1BB68074A1A6000BF1437BD462D
:100A900080BC704700080140000C0140001001407C
:100AA000001401400018014080B584B000AF034637
:100AB0000A46FB711346BB710023FB604FF6FF73C0
:100AC0007B8107F10A0207F10C01FB791846FFF759
:100AD000A1FFFB68002B05D0FB687989BA7918461D
:100AE00000F012FD00BF1037BD4680BD80B58AB052
:100AF00000AF0346FB7107F1220207F12401FB79E5
:100B00001846FFF787FF7B6A2E4A934249D02D4A49
:100B1000934253DC2C4A934236D02B4A93424DDC0D
:100B20002A4A934223D0294A934247DC284A9342D7
:100B300003D0284A93420DD040E0274B9B69264AB8
:100B400043F004039361244B9B6903F00403FB61AE
:100B5000FB6933E0204B9B691F4A43F00803936114
:100B60001D4B9B6903F00803BB61BB6926E01A4B70
:100B70009B69194A43F010039361174B9B6903F07B
:100B800010037B617B6919E0134B9B69124A43F0A8
:100B900020039361104B9B6903F020033B613B6989
:100BA0000CE00D4B9B690C4A43F0400393610A4BE8
:100BB0009B6903F04003FB60FB6800BF00BF283760
:100BC000BD4680BD001801400014014000100140E6
:100BD00000080140000C01400010024080B58AB0BE
:100BE00000AF7860734B9B69724A43F008039361CE
:100BF000704B9B6903F008037B617B696D4B9B69BC
:100C00006C4A43F0040393616A4B9B6903F004034D
:100C10003B613B697B681B79012B02D0022B16D00C
:100C20002CE0654B654A9A65654B7B6200F0D4FA0F
:100C300003463B625F4B9B695E4A43F4805393617A
:100C40005C4B9B6903F48053FB60FB6819E05A4BD3
:100C50005C4AC3F8B02000F0ABFA03463B625A4B43
:100C60007B62544BDB69534A43F48043D361514B5D
:100C7000DB6903F48043BB60BB6802E04FF0FF33E5
:100C800093E07B687A6A1A607B6A4FF482725A60DA
:100C90007B6A00229A607B6A0022DA607B6A4FF4EA
:100CA00000729A617B6A00225A627B685B7B002B30
:100CB00003D07B6A80221A6202E07B6A00221A62F9
:100CC0003A6A7B681B69B2FBF3F3FB613B6A7A68A3
:100CD0001269B3FBF2F101FB02F29B1ABB61BB6923
:100CE000002B02D0FB690133FB617B6A3822DA6199
:100CF000FB69802B02DC7B6A3022DA61FB69402BC6
:100D000002DC7B6A2822DA61FB69202B02DC7B6A29
:100D10002022DA61FB69102B02DC7B6A1822DA617F
:100D2000FB69082B02DC7B6A1022DA61FB69042B69
:100D300002DC7B6A0822DA61FB69022B02DC7B6A37
:100D40000022DA617B681B7B032B27D801A252F8B3
:100D500023F000BF650D0008730D0008810D000829
:100D60008F0D00087B6A00221A617B6A00225A619B
:100D700017E07B6A00221A617B6A01225A6110E047
:100D80007B6A00221A617B6A01225A6109E07B6A50
:100D900002221A617B6A01225A6102E04FF0FF339E
:100DA00003E0786A00F0C8FB034618462837BD46C2
:100DB00080BD00BF00100240300000200030014024
:100DC0008800002000380040E000002080B58AB094
:100DD00000AF78607868FFF701FF38623B6A002B4C
:100DE00001D03B6AC6E00123BB610323FB61002302
:100DF000FB604FF6FF737B81002387F827307B6809
:100E00009B7907F10A0207F10C011846FFF702FE71
:100E10007B689B791846FFF769FEFB68002B0DD0B5
:100E200002237B617B893B61FB6807F1100211465D
:100E3000184600F0E5F9012387F827307B68DB7955
:100E400007F10A0207F10C011846FFF7E3FD7B6882
:100E5000DB791846FFF74AFEFB68002B0DD0002314
:100E60007B617B893B61FB6807F1100211461846E4
:100E700000F0C6F9012387F8273097F8273083F070
:100E80000103DBB2002B02D04FF0FF3372E07B682E
:100E90005B7907F10A0207F10C011846FFF7BAFD6A
:100EA0007B685B791846FFF721FEFB68002B1CD09E
:100EB00002237B617B893B61FB6807F110021146CD
:100EC000184600F09DF97B681B7A07F10A0207F1CA
:100ED0000C011846FFF79EFD7B681B7A1846FFF74A
:100EE00005FEFB68002B1BD002E04FF0FF3341E012
:100EF00001237B617B893B61FB6807F1100211468E
:100F0000184600F07DF97B681A7A7B685B7A002BC3
:100F10000CBF01230023DBB219461046FFF7C4FDC6
:100F20007B689B7A07F10A0207F10C011846FFF76C
:100F300071FD7B689B7A1846FFF7D8FDFB68002B94
:100F400017D001237B617B893B61FB6807F11002AD
:100F50001146184600F054F97B689A7A7B68DB7A70
:100F6000002B0CBF01230023DBB219461046FFF70C
:100F70009BFD002318462837BD4680BD80B586B04E
:100F800000AFF860B9607A60FB70FB681A7AFB68A2
:100F90005B7A002B14BF01230023DBB219461046F5
:100FA000FFF782FDFB6818687B689AB24FF47A738A
:100FB000B96800F056FB03467B61FB7883F00103C0
:100FC000DBB2002B0CD0FB681A7AFB685B7A002B33
:100FD0000CBF01230023DBB219461046FFF764FD66
:100FE0007B6918461837BD4680BD80B586B000AF16
:100FF000F860B9607A60FB70FB681A7AFB685B7A0C
:10100000002B14BF01230023DBB219461046FFF763
:101010004BFDFB6818687B689AB24FF47A73B96825
:1010200000F07DFC03467B61FB7883F00103DBB2BB
:10103000002B0CD0FB681A7AFB685B7A002B0CBF84
:1010400001230023DBB219461046FFF72DFD7B6913
:1010500018461837BD4680BD80B483B000AF7860B5
:10106000044B1B68C01AFBD800BF0C37BD4680BCC0
:10107000704700BFAC01002080B487B000AF78603B
:10108000124BDB687B61114A7B6943F08073D3604C
:101090000F4B1B683B610E4A3B6943F00103136031
:1010A0000B4B5B68FB6000BF094B5A68FB68D31AA7
:1010B0007A689A42F8D8064A3B691360034A7B690A
:1010C000D36000BF1C37BD4680BC7047F0ED00E028
:1010D000001000E080B582B000AF7860084B1B685C
:1010E000084A12680849A1FB0212920C796801FBB8
:1010F00002F21046984700BF0837BD4680BD00BFCA
:10110000A8010020B001002083DE1B4380B582B01F
:1011100000AF78607B684FF47A7202FB03F31846E5
:10112000FFF7D8FF00BF0837BD4680BD80B483B04D
:1011300000AF124B5B6803F00103002B07D0104B8C
:101140001B6803F00073002B01D1012300E0002392
:10115000FB71FB7903F00103FB71FB79002B03D0DA
:10116000084B094A1A6002E0064B084A1A6000BFA1
:1011700018460C37BD4680BC704700BF00F00FE03A
:10118000001000E0A80100207910000859100008A4
:1011900080B400AF00BFBD4680BC704780B400AFD4
:1011A000024B1B681846BD4680BC7047B00100204A
:1011B00080B500AFFFF7F2FF0246054B5B681B0AE4
:1011C00003F007030349CB5C22FA03F3184680BD02
:1011D00000100240CC31000880B500AFFFF7DEFF01
:1011E0000246054B5B68DB0A03F007030349CB5C4F
:1011F00022FA03F3184680BD00100240CC310008EB
:1012000080B48BB000AF7860396000237B6200232C
:101210003B6269E101227B6A02FA03F3FB613B68EE
:101220001B68FA691340BB61BA69FB699A4240F0D6
:1012300058813B685B689A4A93425ED0984A9342D1
:1012400075D8984A934258D0964A93426FD8964A96
:10125000934252D0944A934269D8944A93424CD0D4
:10126000924A934263D8924A934246D0904A93421C
:101270005DD8122B2AD8122B59D801A252F823F08C
:10128000FB120008D5120008E71200082913000815
:101290002F1300082F1300082F1300082F13000826
:1012A0002F1300082F1300082F1300082F13000816
:1012B0002F1300082F1300082F1300082F13000806
:1012C0002F130008DD120008F1120008794A93423A
:1012D00013D02CE03B68DB683B6229E03B68DB68AD
:1012E00004333B6224E03B68DB6808333B621FE069
:1012F0003B68DB680C333B621AE03B689B68002B61
:1013000002D104233B6213E03B689B68012B05D1AB
:1013100008233B627B68FA691A6109E008233B6293
:101320007B68FA695A6103E000233B6200E000BF7A
:10133000BB69FF2B01D87B6801E07B6804337B61CC
:10134000BB69FF2B02D87B6A9B0002E07B6A083BEB
:101350009B003B617B691A680F213B6901FA03F32B
:10136000DB431A40396A3B6901FA03F31A437B698C
:101370001A603B685B6803F08053002B00F0B1807B
:101380004D4B9B694C4A43F0010393614A4B9B6967
:1013900003F00103BB60BB68484A7B6A9B080233C9
:1013A00052F82330FB607B6A03F003039B000F229B
:1013B00002FA03F3DB43FA681340FB607B68404AA0
:1013C000934213D07B683F4A93420DD07B683E4ADC
:1013D000934207D07B683D4A934201D1032306E044
:1013E000042304E0022302E0012300E000237A6AE0
:1013F00002F0030292009340FA681343FB602F4906
:101400007B6A9B080233FA6841F823203B685B68DB
:1014100003F48033002B06D02D4B1A682C49BB698E
:1014200013430B6006E02A4B1A68BB69DB4328496B
:1014300013400B603B685B6803F40033002B06D05D
:10144000234B5A682249BB6913434B6006E0204B8B
:101450005A68BB69DB431E4913404B603B685B68BD
:1014600003F48013002B06D0194B9A681849BB6906
:1014700013438B6006E0164B9A68BB69DB43144943
:1014800013408B603B685B6803F40013002B21D092
:101490000F4BDA680E49BB691343CB6021E000BFF4
:1014A0000000321000003110000022100000211056
:1014B0000000121000001110001002400000014056
:1014C00000080140000C01400010014000140140E0
:1014D000000401400B4BDA68BB69DB430949134048
:1014E000CB607B6A01337B623B681A687B6A22FAB5
:1014F00003F3002B7FF48EAE00BF00BF2C37BD4638
:1015000080BC70470004014080B483B000AF7860B5
:101510000B467B8013467B707B78002B03D07A8848
:101520007B681A6103E07B881A047B681A6100BF3C
:101530000C37BD4680BC704780B582B000AF786084
:101540007B68002B01D101237EE07B685B6A002B66
:1015500008D17B685B68B3F5827F09D07B68002285
:10156000DA6105E07B6800221A617B6800225A611B
:101570007B6893F85130DBB2002B06D17B680022E8
:1015800083F85020786800F063F87B68022283F8C3
:1015900051207B681B681A687B681B6822F0400238
:1015A0001A607B685B6803F482727B689B6803F453
:1015B00004431A437B68DB6803F400631A437B68C7
:1015C0001B6903F002031A437B685B6903F00103A4
:1015D0001A437B689B6903F400731A437B68DB69D9
:1015E00003F038031A437B681B6A03F0800342EA66
:1015F00003017B689B6A03F400527B681B680A4303
:101600001A607B689B691A0C7B681B6802F00402F5
:101610005A607B689B6AB3F5005F05D17B68DA6A24
:101620007B681B6892B21A617B681B68DA697B6809
:101630001B6822F40062DA617B6800225A657B68CD
:10164000012283F85120002318460837BD4680BD8B
:1016500080B483B000AF786000BF0C37BD4680BC5B
:10166000704780B588B000AFF860B9603B60134642
:10167000FB800023FB77FB6893F85030012B01D1EE
:10168000022348E1FB68012283F8502000F04AFE63
:10169000B861FB88FB82FB6893F85130DBB2012B09
:1016A00002D00223FB772DE1BB68002B02D0FB8820
:1016B000002B02D10123FB7724E1FB68032283F88E
:1016C0005120FB6800225A65FB68BA681A63FB6800
:1016D000FA889A86FB68FA88DA86FB6800229A63A1
:1016E000FB6800229A87FB680022DA87FB680022E9
:1016F0005A64FB6800221A64FB689B68B3F5004FCC
:101700000FD1FB681B681A68FB681B6822F0400257
:101710001A60FB681B681A68FB681B6842F4804209
:101720001A60FB689B6AB3F5005F0FD1FB681B680A
:101730001A68FB681B6822F400521A60FB681B6879
:101740001A68FB681B6842F400521A60FB681B6849
:101750001B6803F04003402B07D0FB681B681A6826
:10176000FB681B6842F040021A60FB68DB68B3F557
:10177000006F4BD1FB685B68002B02D0FB8A012B0A
:101780003ED1FB681B6B1A88FB681B68DA60FB683C
:101790001B6B9A1CFB681A63FB68DB8E9BB2013BD8
:1017A0009AB2FB68DA862BE0FB681B689B6803F043
:1017B0000203022B12D1FB681B6B1A88FB681B68A3
:1017C000DA60FB681B6B9A1CFB681A63FB68DB8E94
:1017D0009BB2013B9AB2FB68DA8611E000F0A2FDF1
:1017E0000246BB69D31A3A689A4203D83B68B3F100
:1017F000FF3F02D13B68002B02D10323FB7781E03E
:10180000FB68DB8E9BB2002BCED14CE0FB685B68A3
:10181000002B02D0FB8A012B40D1FB681A6BFB68BE
:101820001B680C3312781A70FB681B6B5A1CFB6820
:101830001A63FB68DB8E9BB2013B9AB2FB68DA86C7
:101840002CE0FB681B689B6803F00203022B13D19A
:10185000FB681A6BFB681B680C3312781A70FB6804
:101860001B6B5A1CFB681A63FB68DB8E9BB2013B47
:101870009AB2FB68DA8611E000F054FD0246BB69BB
:10188000D31A3A689A4203D83B68B3F1FF3F02D1BA
:101890003B68002B02D10323FB7733E0FB68DB8E30
:1018A0009BB2002BCDD1FB689B6AB3F5005F07D1DB
:1018B000FB681B681A68FB681B6842F480521A6058
:1018C000BA693968F86800F0DFFC0346002B02D0E3
:1018D000FB6820225A65FB689B68002B0AD1002315
:1018E0003B61FB681B68DB683B61FB681B689B68AE
:1018F0003B613B69FB685B6D002B02D00123FB77EA
:1019000000E000BFFB68012283F85120FB68002241
:1019100083F85020FB7F18462037BD4680BD80B538
:101920008AB002AFF860B9603B601346FB800023C9
:101930007B610023FB77FB685B68B3F5827F12D184
:10194000FB689B68002B0ED1FB68042283F85120B2
:10195000FA883B6800931346BA68B968F86800F0E3
:101960008FF9034688E1FB6893F85030012B01D1D1
:10197000022381E1FB68012283F8502000F0D2FCB1
:10198000B861FB6893F85130DBB2012B02D002231F
:10199000FB7768E1BB68002B02D0FB88002B02D1EB
:1019A0000123FB775FE1FB68042283F85120FB6889
:1019B00000225A65FB68BA689A63FB68FA889A87BE
:1019C000FB68FA88DA87FB6800221A63FB6800224A
:1019D0009A86FB680022DA86FB6800221A64FB689C
:1019E00000225A64FB689B6AB3F5005F16D1FB685E
:1019F0001B681A68FB681B6822F400521A60FB68B7
:101A00001B681A68FB681B6842F400521A60FB6886
:101A1000DB8F9BB2013B9AB2FB68DA87FB689B685D
:101A2000B3F5004F0FD1FB681B681A68FB681B6891
:101A300022F040021A60FB681B681A68FB681B688A
:101A400022F480421A60FB681B681B6803F04003A5
:101A5000402B07D0FB681B681A68FB681B6842F0C4
:101A600040021A60FB68DB68002B62D12EE0FB6845
:101A70001B689B6803F00103012B15D1FB681B68F1
:101A800003F10C02FB689B6B1278D2B21A70FB68F0
:101A90009B6B5A1CFB689A63FB68DB8F9BB2013B14
:101AA0009AB2FB68DA8711E000F03CFC0246BB69A1
:101AB000D31A3A689A4203D83B68B3F1FF3F02D188
:101AC0003B68002B02D10323FB77CCE0FB68DB8F64
:101AD0009BB2002BCBD131E0FB681B689B6803F005
:101AE0000103012B13D1FB681B68DA68FB689B6B51
:101AF00092B21A80FB689B6B9A1CFB689A63FB6826
:101B0000DB8F9BB2013B9AB2FB68DA8711E000F0F1
:101B100009FC0246BB69D31A3A689A4203D83B686B
:101B2000B3F1FF3F02D13B68002B02D10323FB77C7
:101B300099E0FB68DB8F9BB2002BCDD1FB689B6AE1
:101B4000B3F5005F53D1FB681B681A68FB681B681C
:101B500042F480521A60FB681B681B6803F48053D0
:101B6000002B07D0FB681B681A68FB681B6822F40F
:101B700080521A60BB6900933B6801220121F8681A
:101B800000F0A8FA0346002B02D00323FB776AE09B
:101B9000FB68DB68B3F5006F07D1FB681B68DA6888
:101BA000FB689B6B92B21A8008E0FB681B6803F12C
:101BB0000C02FB689B6B1278D2B21A70BB6900935F
:101BC0003B6801220121F86800F084FA0346002BEB
:101BD00008D0FB685B6D43F00202FB685A65032383
:101BE000FB7740E0FB681B68DB687B617B69BA6957
:101BF0003968F86800F0F6FA0346002B02D0FB685B
:101C000020225A65FB681B689B6803F01003102BA9
:101C100021D1F86800F056FB0346012B16D1FB6872
:101C20005B6D43F00202FB685A65FB681B681A682B
:101C3000FB681B6822F400521A60FB681B681A6874
:101C4000FB681B6842F400521A6004E0FB681B68E2
:101C50004FF6EF729A60FB685B6D002B02D0012398
:101C6000FB7700E000BFFB68012283F85120FB688E
:101C7000002283F85020FB7F18462037BD4680BDE8
:101C800080B58EB002AFF860B9607A607B800023C7
:101C90007B610123FB62002387F82B30FB6893F8FC
:101CA0005030012B01D102230FE2FB68012283F89F
:101CB000502000F037FB7862FB6893F8513087F8CA
:101CC0002330FB685B68FB617B887B8397F823305C
:101CD000012B0FD0FB69B3F5827F07D1FB689B68AE
:101CE000002B03D197F82330042B03D0022387F86D
:101CF0002B30E0E1BB68002B05D07B68002B02D0C5
:101D00007B88002B03D1012387F82B30D3E1FB68BC
:101D100093F85130DBB2042B03D0FB68052283F823
:101D20005120FB6800225A65FB687A689A63FB6859
:101D30007A88DA87FB687A889A87FB68BA681A63B8
:101D4000FB687A88DA86FB687A889A86FB680022C4
:101D50001A64FB6800225A64FB689B6AB3F5005F53
:101D60000FD1FB681B681A68FB681B6822F40052DD
:101D70001A60FB681B681A68FB681B6842F4005213
:101D80001A60FB681B681B6803F04003402B07D0F8
:101D9000FB681B681A68FB681B6842F040021A6007
:101DA000FB68DB68B3F5006F40F08B80FB685B6815
:101DB000002B02D07B8B012B78D1FB681B6B1A8820
:101DC000FB681B68DA60FB681B6B9A1CFB681A6374
:101DD000FB68DB8E9BB2013B9AB2FB68DA8665E05A
:101DE000FB681B689B6803F00203022B2DD1FB6884
:101DF000DB8E9BB2002B28D0FB6A012B25D1FB6820
:101E00001B6B1A88FB681B68DA60FB681B6B9A1CEB
:101E1000FB681A63FB68DB8E9BB2013B9AB2FB68DE
:101E2000DA860023FB62FB68DB8E9BB2002B0CD1B1
:101E3000FB689B6AB3F5005F07D1FB681B681A68F3
:101E4000FB681B6842F480521A60FB681B689B6841
:101E500003F00103012B19D1FB68DB8F9BB2002B30
:101E600014D0FB681B68DA68FB689B6B92B21A801F
:101E7000FB689B6B9A1CFB689A63FB68DB8F9BB2C9
:101E8000013B9AB2FB68DA870123FB6200F04AFA51
:101E900002467B6AD31ABA6B9A4207D8BB6BB3F17E
:101EA000FF3F03D0032387F82B3004E1FB68DB8E70
:101EB0009BB2002B94D1FB68DB8F9BB2002B8FD1A0
:101EC0008EE0FB685B68002B02D07B8B012B7DD101
:101ED000FB681A6BFB681B680C3312781A70FB687E
:101EE0001B6B5A1CFB681A63FB68DB8E9BB2013BC1
:101EF0009AB2FB68DA8669E0FB681B689B6803F0AE
:101F00000203022B2ED1FB68DB8E9BB2002B29D063
:101F1000FB6A012B26D1FB681A6BFB681B680C332C
:101F200012781A70FB681B6B5A1CFB681A63FB68FB
:101F3000DB8E9BB2013B9AB2FB68DA860023FB6220
:101F4000FB68DB8E9BB2002B0CD1FB689B6AB3F560
:101F5000005F07D1FB681B681A68FB681B6842F4C6
:101F600080521A60FB681B689B6803F00103012B19
:101F700019D1FB68DB8F9BB2002B14D0FB681B6868
:101F8000DA68FB689B6BD2B21A70FB689B6B5A1CB9
:101F9000FB689A63FB68DB8F9BB2013B9AB2FB68DC
:101FA000DA870123FB6200F0BDF902467B6AD31A8F
:101FB000BA6B9A4203D8BB6BB3F1FF3F02D1BB6B44
:101FC000002B03D1032387F82B3074E0FB68DB8EF2
:101FD0009BB2002B90D1FB68DB8F9BB2002B8BD187
:101FE000FB689B6AB3F5005F19D17B6A0093BB6BFA
:101FF00001220121F86800F06DF80346002B09D09A
:10200000FB685B6D43F00202FB685A65032387F8A7
:102010002B3050E0FB681B68DB687B617B69FB68E9
:102020001B689B6803F01003102B24D1F86800F0A4
:1020300049F90346012B19D1FB685B6D43F002029D
:10204000FB685A65FB681B681A68FB681B6822F40A
:1020500000521A60FB681B681A68FB681B6842F430
:1020600000521A60012387F82B3004E0FB681B68DC
:102070004FF6EF729A607A6AB96BF86800F004F96B
:102080000346002B06D0012387F82B30FB68202263
:102090005A6510E0FB689B68002B0BD100233B6165
:1020A000FB681B68DB683B61FB681B689B683B61E6
:1020B0003B6900E000BFFB68012283F85120FB6808
:1020C000002283F8502097F82B3018463037BD4651
:1020D00080BD000080B588B000AFF860B9603B609B
:1020E0001346FB7100F01EF90246BB6A9B1A3A6860
:1020F0001344FB6100F016F9B861394B1B685B01B2
:102100001B0DFA6902FB03F37B6154E03B68B3F1FA
:10211000FF3F50D000F006F90246BB69D31AFA69B6
:102120009A4202D9FB69002B3DD1FB681B685A68B3
:10213000FB681B6822F0E0025A60FB685B68B3F53D
:10214000827F11D1FB689B68B3F5004F04D0FB6818
:102150009B68B3F5806F07D1FB681B681A68FB6842
:102160001B6822F040021A60FB689B6AB3F5005FAF
:102170000FD1FB681B681A68FB681B6822F40052C9
:102180001A60FB681B681A68FB681B6842F40052FF
:102190001A60FB68012283F85120FB68002283F853
:1021A0005020032317E07B69002B01D10023FB6142
:1021B0007B69013B7B61FB681B689A68BB681340C5
:1021C000BA689A420CBF01230023DBB21A46FB799E
:1021D0009A429BD1002318462037BD4680BD00BFE0
:1021E000B001002080B586B002AFF860B9607A60B7
:1021F000FB685B68B3F5827F11D1FB689B68B3F520
:10220000004F04D0FB689B68B3F5806F07D1FB6873
:102210001B681A68FB681B6822F040021A60FB68A2
:102220005B68B3F5827F17D1FB689B68B3F5806F5D
:1022300012D17B680093BB6800220121F868FFF788
:1022400049FF0346002B1AD0FB685B6D43F0200268
:10225000FB685A65032313E07B680093BB68002288
:102260008021F868FFF736FF0346002B07D0FB6894
:102270005B6D43F02002FB685A65032300E00023F6
:1022800018461037BD4680BD80B586B002AFF860F5
:10229000B9607A607B680093BB6800228021F8688F
:1022A000FFF718FF0346002B07D0FB685B6D43F078
:1022B0002002FB685A65032300E00023184610370C
:1022C000BD4680BD80B483B000AF7860012318465E
:1022D0000C37BD4680BC70470C480D490D4A0023A1
:1022E00002E0D458C4500433C4188C42F9D30A4ACB
:1022F0000A4C002301E013600432A242FBD3FEF734
:1023000047FF00F09DFAFEF713FB7047A80100207D
:10231000180200200C32000800000020A801002054
:10232000FEE7000080B400AF024B1B681846BD46B4
:1023300080BC70479001002080F0004002E000BFA8
:1023400081F0004142001FBF5FEA410392EA030FA0
:102350007FEA226C7FEA236C6AD04FEA1262D2EBEA
:102360001363C1BFD218414048404140B8BF5B42EF
:10237000192B88BF704710F0004F40F4000020F088
:102380007F4018BF404211F0004F41F4000121F09E
:102390007F4118BF494292EA030F3FD0A2F10102E8
:1023A00041FA03FC10EB0C00C3F1200301FA03F126
:1023B00000F0004302D5494260EB4000B0F5000F49
:1023C00013D3B0F1807F06D340084FEA310102F108
:1023D0000102FE2A51D2B1F1004F40EBC25008BFBA
:1023E00020F0010040EA03007047490040EB000084
:1023F000013A28BFB0F5000FEDD2B0FA80FCACF185
:10240000080CB2EB0C0200FA0CF0AABF00EBC250B1
:1024100052421843BCBFD0401843704792F0000F9F
:1024200081F4000106BF80F400000132013BB5E7F2
:102430004FEA41037FEA226C18BF7FEA236C21D068
:1024400092EA030F04D092F0000F08BF08467047CD
:1024500090EA010F1CBF0020704712F07F4F04D19B
:10246000400028BF40F00040704712F100723CBFAE
:1024700000F50000704700F0004343F0FE4040F4D8
:10248000000070477FEA226216BF08467FEA236396
:102490000146420206BF5FEA412390EA010F40F481
:1024A000800070474FF0000304E000BF10F00043CD
:1024B00048BF40425FEA000C08BF704743F09643B4
:1024C00001464FF000001CE050EA010208BF7047CF
:1024D0004FF000030AE000BF50EA010208BF704756
:1024E00011F0004302D5404261EB41015FEA010C6B
:1024F00002BF84460146002043F0B64308BFA3F163
:102500008053A3F50003BCFA8CF2083AA3EBC25344
:1025100010DB01FA02FC634400FA02FCC2F1200263
:10252000BCF1004F20FA02F243EB020008BF20F09A
:102530000100704702F1200201FA02FCC2F1200200
:1025400050EA4C0021FA02F243EB020008BF20EAF5
:10255000DC7070474FF0FF0C1CEAD0521EBF1CEA23
:10256000D15392EA0C0F93EA0C0F6FD01A4480EA11
:10257000010C400218BF5FEA41211ED04FF00063FA
:1025800043EA501043EA5111A0FB01310CF0004026
:10259000B1F5000F3EBF490041EAD3715B0040EA4C
:1025A000010062F17F02FD2A1DD8B3F1004F40EB1C
:1025B000C25008BF20F00100704790F0000F0CF0EF
:1025C000004C08BF49024CEA502040EA51207F3AB3
:1025D000C2BFD2F1FF0340EAC250704740F400008E
:1025E0004FF00003013A5DDC12F1190FDCBF00F07F
:1025F00000407047C2F10002410021FA02F1C2F12D
:10260000200200FA02FC5FEA310040F1000053EAC8
:102610004C0308BF20EADC70704792F0000F00F016
:10262000004C02BF400010F4000F013AF9D040EA1C
:102630000C0093F0000F01F0004C02BF490011F4B0
:10264000000F013BF9D041EA0C018FE70CEAD153AE
:1026500092EA0C0F18BF93EA0C0F0AD030F0004C2E
:1026600018BF31F0004CD8D180EA010000F00040E2
:10267000704790F0000F17BF90F0004F084691F0A0
:10268000000F91F0004F14D092EA0C0F01D14202DA
:102690000FD193EA0C0F03D14B0218BF084608D1A3
:1026A00080EA010000F0004040F0FE4040F40000ED
:1026B000704740F0FE4040F4400070474FF0FF0C80
:1026C0001CEAD0521EBF1CEAD15392EA0C0F93EAC7
:1026D0000C0F69D0A2EB030280EA010C49024FEA19
:1026E000402037D04FF0805343EA111143EA1013D2
:1026F0000CF000408B4238BF5B0042F17D024FF48A
:10270000000C8B4224BF5B1A40EA0C00B3EB510F64
:1027100024BFA3EB510340EA5C00B3EB910F24BF4D
:10272000A3EB910340EA9C00B3EBD10F24BFA3EBD2
:10273000D10340EADC001B0118BF5FEA1C1CE0D19A
:10274000FD2A3FF650AF8B4240EBC25008BF20F04D
:10275000010070470CF0004C4CEA50207F32C2BFA1
:10276000D2F1FF0340EAC250704740F400004FF03E
:102770000003013A37E792F0000F00F0004C02BF6F
:10278000400010F4000F013AF9D040EA0C0093F039
:10279000000F01F0004C02BF490011F4000F013B93
:1027A000F9D041EA0C0195E70CEAD15392EA0C0FFB
:1027B00008D142027FF47DAF93EA0C0F7FF470AF33
:1027C000084676E793EA0C0F04D14B023FF44CAF76
:1027D00008466EE730F0004C18BF31F0004CCAD10B
:1027E00030F000427FF45CAF31F000437FF43CAF47
:1027F0005FE700BF4FEA4002B2F1FE4F0FD34FF048
:102800009E03B3EB12620DD94FEA002343F000435D
:1028100010F0004F23FA02F018BF404270474FF00B
:102820000000704712F1610F01D1420205D110F092
:10283000004008BF6FF0004070474FF00000704745
:1028400070B500260C4D0D4C641BA410A64209D196
:1028500000F0ACFC00260A4D0A4C641BA410A642F2
:1028600005D170BD55F8043B98470136EEE755F8A1
:10287000043B98470136F2E77C3200087C320008BE
:102880007C320008803200080A44914200F1FF3394
:1028900000D1704710B511F8014B914203F8014F78
:1028A000F9D110BD03460244934200D1704703F8AA
:1028B000011BF9E70EB46FF0004100B59CB01DABF1
:1028C00002900690079104910848094953F8042B97
:1028D0000591006802A9019300F070F80022029BA4
:1028E0001A701CB05DF804EB03B07047B40100200F
:1028F0000802FFFF034613F8012B002AFBD1181A28
:1029000001387047704770472DE9F0471F468E68C1
:102910008246BE420C4690460B682CD88A8912F437
:10292000906F26D06569096905EB4505A3EB0109A0
:1029300005EBD5757B1C4B446D109D4238BF1D4681
:10294000530527D5294600F05BFB064660B34A468F
:102950002169FFF799FFA38923F4906343F0800373
:10296000A38126614E4426603E466561A5EB0905BC
:10297000A560BE4200D93E4632464146206800F07E
:10298000BDFA0020A3689B1BA36023683344236027
:10299000BDE8F0872A4600F0A7FB06460028E0D1F4
:1029A0005046216900F0C4FA0C23CAF80030A3890C
:1029B0004FF0FF3043F04003A381E9E72DE9F04FEA
:1029C00098468B8907461B060D4614469DB00ED5CA
:1029D0000B6963B9402100F013FB2860286120B91E
:1029E0000C233B604FF0FF30D0E040236B610023AD
:1029F000099320238DF8293030234FF00109CDF8B9
:102A00000C80DFF8A0818DF82A3023469A4613F80F
:102A1000012B0AB1252AF9D1BAEB040B0BD05B4686
:102A2000224629463846FFF76FFF013000F0A980A3
:102A3000099A5A4409929AF80030002B00F0A180BC
:102A400000234FF0FF32CDE905230AF1010A049378
:102A500007938DF853301A935446052214F8011B3E
:102A6000504800F03DFA049AD8B9D00644BF20235C
:102A70008DF85330110744BF2B238DF853309AF84B
:102A800000302A2B15D0544600204FF00A0C079A2C
:102A9000214611F8013B303B092B4DD9B0B10792CB
:102AA00014E0A0EB080309FA03F31343A2460493CE
:102AB000D2E7039B191D1B680391002BBBBF5B4230
:102AC00042F0020207930793B8BF049223782E2B9B
:102AD0000CD163782A2B34D1039B02341A1D1B6856
:102AE0000392002BB8BF4FF0FF330593DFF8B8A077
:102AF00003225046217800F0F3F938B14022049BBC
:102B0000A0EB0A00824013430134049314F8011B24
:102B1000062226488DF8281000F0E2F9002838D067
:102B2000234B1BBB039B073323F00703083303939B
:102B3000099B3344099368E70C4601200CFB0232E1
:102B4000A6E700234FF00A0C1946013405932046EE
:102B500010F8012B303A092A03D9002BC6D0059171
:102B6000C4E7044601230CFB0121F0E703AB00930B
:102B70002A4638460F4B04A9AFF30080421C064694
:102B8000D6D1AB895B063FF52DAF09981DB0BDE8E6
:102B9000F08F03AB00932A463846064B04A900F099
:102BA0007DF8EBE7D4310008DA310008DE310008A7
:102BB00000000000092900082DE9F0471646994653
:102BC0008A680B6907469342B8BF1346336091F891
:102BD00043200C46DDF820800AB1013333602368BE
:102BE000990642BF336802333360256815F0060545
:102BF00006D104F1190AE36832689B1AAB422BDC58
:102C000094F84320131E226818BF0123920630D483
:102C10004946384604F14302C047013023D02368B7
:102C2000226903F00603042B14BF002533684FF01C
:102C3000000608BFE56804F11A0408BFED1A54F84D
:102C4000123C08BF25EAE5759342C4BF9B1AED18F4
:102C5000B5421AD1002008E00123524649463846C1
:102C6000C047013003D14FF0FF30BDE8F087013598
:102C7000C1E73020E11881F843005A1C94F8451050
:102C80002244023382F84310C2E701232246494618
:102C90003846C0470130E6D00136D9E72DE9FF4775
:102CA0000F7E9146782F80460C469A460C9D01F186
:102CB000430207D8622F0AD8002F00F0D580582F82
:102CC00000F0C18004F1420584F842703AE0A7F1B7
:102CD0006303152BF6D801A151F823F0352D000818
:102CE000492D0008C52C0008C52C0008C52C00087B
:102CF000C52C0008492D0008C52C0008C52C00086B
:102D0000C52C0008C52C00084F2E0008752D0008A2
:102D1000092E0008C52C0008C52C0008712E0008DB
:102D2000C52C0008752D0008C52C0008C52C00080E
:102D3000112E00082B681A1D1B682A6004F1420539
:102D400084F842300123A0E020682B68070603F1D5
:102D50000401296001D51E6803E04606FBD5B3F9DE
:102D60000060002E03DA2D23764284F843300A23D4
:102D7000594812E02B682068191D2960050601D505
:102D80001E6802E04106FBD51E886F2F0CBF08238A
:102D90000A235148002184F843106568002DA8BF1C
:102DA0002168A560A4BF21F0040121600EB9002DA7
:102DB0004BD01546B6FBF3F103FB1167C75D05F871
:102DC000017D3746BB420E46F4D9082B0BD1236850
:102DD000DE0708D5236961689942DEBF302305F814
:102DE000013C05F1FF35521B22614B46214640460E
:102DF000CDF800A003AAFFF7DFFE01304AD14FF063
:102E0000FF3004B0BDE8F087236843F0200323605F
:102E10007827324884F84570236829681F0651F8DE
:102E2000046B02D45F0648BFB6B2DF0748BF43F069
:102E30002003296048BF23601EB9236823F02003C4
:102E400023601023A6E72448E4E71546BDE72B6876
:102E50002668181D6169286035061B6801D5196050
:102E600002E07006FBD51980002315462361BCE7FC
:102E70002B6800211A1D2A601D686268284600F030
:102E80002FF808B1401B606063682361002384F859
:102E90004330AAE72A46494640462369D0470130D5
:102EA000ADD023689B0713D4E068039B9842B8BF5A
:102EB0001846A6E70123324649464046D04701302E
:102EC0009DD00135E36803995B1AAB42F2DCEBE776
:102ED000002504F11906F5E7E5310008F631000890
:102EE000034610B5C9B202449342184601D10020EE
:102EF00003E0047801338C42F6D110BD884210B54E
:102F000001EB020402D98442234607D8431EA142A2
:102F100008D011F8012B03F8012FF8E7014602440D
:102F20008A4200D110BD13F8014D02F8014DF7E7B8
:102F300038B50546002940D051F8043C0C1F002B41
:102F4000B8BFE41800F010F91C4A136833B9636085
:102F500014602846BDE8384000F00CB9A34208D9F7
:102F6000206821188B4201BF19685B68091821602D
:102F7000EDE71A465B680BB1A342FAD91168501805
:102F8000A0420BD120680144501883421160E0D167
:102F900018685B68084410605360DAE702D90C23B4
:102FA0002B60D6E7206821188B4201BF19685B6847
:102FB0000918216063605460CBE738BD9801002098
:102FC00070B50E4E0C463168054611B900F0BCF8DC
:102FD00030602146284600F0B7F8431C0AD0C41CD4
:102FE00024F00304A04207D0211A284600F0ACF8D0
:102FF000013001D14FF0FF34204670BD9C0100200C
:103000002DE9F041CD1C25F0030508350C2D38BF06
:103010000C25002D074601DBA94205D90C2300260B
:103020003B603046BDE8F0812E4E00F09DF83368DD
:103030001C4634BB29463846FFF7C2FF431C0446F2
:103040004DD134682646002E40D12368314638469B
:1030500004EB030800F078F880453AD12368033583
:10306000ED1A25F0030508350C2D38BF0C25384620
:103070002946FFF7A5FF01302BD023682B4423609E
:103080000EE02268521B1ED40B2A16D96119A342E6
:10309000256018BF5960636808BF316062514B609A
:1030A000384604F10B0600F065F826F00706231DEC
:1030B000F21AB6D09B1BA350B3E76268A3420CBFC1
:1030C00032605A60ECE723466468B2E734467668BB
:1030D000B9E70C2338463B6000F04CF8A1E72560C7
:1030E000DEE700BF980100202DE9F041804614463C
:1030F0000E4621B91146BDE8F041FFF781BF2AB95C
:10310000FFF716FF25462846BDE8F08100F038F8A5
:103110008442074602D8B4EB500F12D821464046ED
:10312000FFF76EFF05460028EDD0BC42224631462F
:1031300028BF3A46FFF7A8FB31464046FFF7F8FEA6
:10314000E1E73546DFE7000038B50023054D0446CA
:1031500008462B6000F01CF8431C02D12B6803B119
:10316000236038BDA00100200148FFF7CBBB00BFA2
:10317000940100200148FFF7C6BB00BF9401002066
:1031800051F8043C181F002BBCBF0B58C0187047E7
:10319000044A05491368002B08BF0B461844106009
:1031A00018467047A401002018020020F8B500BF9F
:1031B000F8BC08BC9E467047F8B500BFF8BC08BC18
:1031C0009E467047547820253564000000000000BA
:1031D00001020304232D302B2000686C4C0065662F
:1031E0006745464700303132333435363738394158
:1031F000424344454600303132333435363738396E
:0C3200006162636465660000000000006D
:10320C0059100008030000000024F400B80100204D
:10321C0000000000000000000000000000000000A2
:10322C000000000000000000000000000000000092
:10323C000000000000000000000000000000000082
:10324C000000000000000000000000000000000072
:10325C000000000000000000000000000000000062
:10326C000000000000000000000000000000000052
:04327C00250200081F
:04328000010200083F
:04000005080022D9F4
:00000001FF
